:020000040800F2
:1000000000C0002095130008C7490008C94900082E
:10001000CB490008CD490008CF4900080000000086
:10002000000000000000000000000000D1490008AE
:10003000D349000800000000D54900088156000897
:10004000E1130008E1130008E1130008613D000816
:10005000E1130008E1130008B9380008E1130008B3
:10006000E1130008E1130008FD380008E11300085F
:10007000E11D0008E1130008E1130008E113000886
:10008000E1130008E1130008E1130008E113000880
:10009000E1130008E1130008E113000861570008AC
:1000A000E1130008E1130008E1130008E113000860
:1000B000E1130008E1130008E113000845250008DA
:1000C000A5260008E1130008E1130008E113000869
:1000D000E1130008DD580008E11300084959000841
:1000E0009D570008B93F0008E1130008E11300081C
:1000F000E1130008E1130008E1130008E113000810
:10010000E1130008E1130008E1130008E1130008FF
:10011000E1130008E1130008E1130008E1130008EF
:10012000E1130008000000000000000000000000D3
:1001300000000000000000005FF808F1000000006F
:10014000844641EA000313F0030349D1403A23D324
:100150000B6803604B6843608B688360CB68C36047
:100160000B6903614B6943618B698361CB69C3612F
:100170000B6A03624B6A43628B6A8362CB6AC36217
:100180000B6B03634B6B43638B6B8363CB6BC363FF
:1001900040304031403ADBD230320BD30B68036041
:1001A0004B6843608B688360CB68C360103010314C
:1001B000103AF3D20C3205D351F8043B40F8043B1B
:1001C000043AF9D2043208D0D2071CBF11F8013B1F
:1001D00000F8013B01D30B8803806046704700BFE5
:1001E000082A13D38B07B1D010F00303AED0C3F1AC
:1001F0000403D21ADB071CBF11F8013B00F8013BD6
:10020000A4D331F8023B20F8023B9FE7043AD9D34C
:10021000013A11F8013B00F8013BF9D20B78037069
:100220004B7843708B7883706046704740EA010CCE
:100230001CF0070F27D1BDF1100DCDE90245CDE926
:1002400000676FF000064FF0000700BFF0E80223E0
:10025000F1E80245A242A2F1013C2CEA020C0CF0AA
:10026000803C08BFBCF1000F40F0E580AB42A3F139
:10027000013C2CEA030C0CF0803C08BFBCF1000FE1
:1002800040F0D680E2E710F0030C21D020F003000C
:1002900050F8042B5FEACC7C08D00FD211F801CBC8
:1002A0005FFA92F3B3EB0C0C10D17BB111F801CBD8
:1002B0005FFAA2F3B3EB0C0C08D13BB111F801CB00
:1002C0005FFAB2F3B3EB0C0C00D10BB96046704788
:1002D000BDF1100DCDE90245CDE900676FF00006D4
:1002E0004FF0000711F0030C33D110F0040F0FD0C2
:1002F00050F8042B51F8044BA242A2F1013C2CEA25
:10030000020C0CF0803C08BFBCF1000F40F0938061
:1003100011F0040F99D051F8045B00BFF0E80223FC
:10032000AA42A2F1013C2CEA020C0CF0803C08BF6E
:10033000BCF1000F79D1F1E80245A342A3F1013CE1
:100340002CEA030C0CF0803C08BFBCF1000F69D113
:10035000E4E721F00301BCF1020F20D03FDA51F8AD
:10036000045B00BF50F8043B4FEA1525A3F1013CA4
:100370002CEA030C0CF0803CB7EB0C2F03EA16229E
:1003800008BFAA4251D151F8045BBCF1000F82EAC8
:1003900003034FEA056208BF934240D1E2E751F8F8
:1003A000045B00BF50F8043B4FEA1545A3F1013C44
:1003B0002CEA030C0CF0803CB7EB0C4F03EA16421E
:1003C00008BFAA4231D151F8045BBCF1000F82EAA8
:1003D00003034FEA054208BF934220D1E2E751F8F8
:1003E000045B00BF50F8043B4FEA1565A3F1013CE4
:1003F0002CEA030C0CF0803CB7EB0C6F03EA16629E
:1004000008BFAA4211D151F8045BBCF1000F82EA87
:1004100003034FEA052208BF934200D1E2E719BA6D
:1004200012BA0AE019BA22BA07E011BA2ABA04E0ED
:1004300019BA2ABA01E011BA22BA9CFA8CF0DDE9A5
:100440000067DDE902451DF1100D38B1B0FA80F00A
:10045000C0F1180021FA00F122FA00F201209142C5
:1004600098BF8041704700BF81F0004102E000BFAB
:1004700083F0004330B54FEA41044FEA430594EA64
:10048000050F08BF90EA020F1FBF54EA000C55EA9F
:10049000020C7FEA645C7FEA655C00F0E2804FEA70
:1004A0005454D4EB5555B8BF6D420CDD2C4480EA52
:1004B000020281EA030382EA000083EA010180EA82
:1004C000020281EA0303362D88BF30BD11F0004FD0
:1004D0004FEA01314FF4801C4CEA113102D0404206
:1004E00061EB410113F0004F4FEA03334CEA133341
:1004F00002D0524263EB430394EA050F00F0A78059
:10050000A4F10104D5F1200E0DDB02FA0EFC22FA53
:1005100005F2801841F1000103FA0EF2801843FA47
:1005200005F359410EE0A5F120050EF1200E012A38
:1005300003FA0EFC28BF4CF0020C43FA05F3C01876
:1005400051EBE37101F0004507D54FF0000EDCF1EF
:10055000000C7EEB00006EEB0101B1F5801F1BD398
:10056000B1F5001F0CD349085FEA30004FEA3C0C9C
:1005700004F101044FEA445212F5800F80F09A8092
:10058000BCF1004F08BF5FEA500C50F1000041EB96
:10059000045141EA050130BD5FEA4C0C404141EB9A
:1005A000010111F4801FA4F10104E9D191F0000FC1
:1005B00004BF01460020B1FA81F308BF2033A3F144
:1005C0000B03B3F120020CDA0C3208DD02F1140C3B
:1005D000C2F10C0201FA0CF021FA02F10CE002F176
:1005E0001402D8BFC2F1200C01FA02F120FA0CFC6F
:1005F000DCBF41EA0C019040E41AA2BF01EB0451B8
:10060000294330BD6FEA04041F3C1CDA0C340EDCB5
:1006100004F11404C4F1200220FA04F001FA02F3F8
:1006200040EA030021FA04F345EA030130BDC4F1B6
:100630000C04C4F1200220FA02F001FA04F340EAAB
:100640000300294630BD21FA04F0294630BD94F05C
:10065000000F83F4801306BF81F480110134013D43
:100660004EE77FEA645C18BF7FEA655C29D094EAB4
:10067000050F08BF90EA020F05D054EA000C04BF32
:100680001946104630BD91EA030F1EBF002100201D
:1006900030BD5FEA545C05D14000494128BF41F0BC
:1006A000004130BD14F580043CBF01F5801130BD20
:1006B00001F0004545F0FE4141F470014FF00000AB
:1006C00030BD7FEA645C1ABF194610467FEA655C5C
:1006D0001CBF0B46024650EA013406BF52EA0335FE
:1006E00091EA030F41F4002130BD00BF90F0000FEC
:1006F00004BF0021704730B54FF4806404F1320428
:100700004FF000054FF0000150E700BF90F0000FE0
:1007100004BF0021704730B54FF4806404F1320407
:1007200010F0004548BF40424FF000013EE700BFD7
:1007300042004FEAE2014FEA31014FEA02701FBF67
:1007400012F07F4393F07F4F81F06051704792F039
:10075000000F14BF93F07F4F704730B54FF46074B3
:1007600001F0004521F0004120E700BF50EA0102FE
:1007700008BF704730B54FF000050AE050EA0102AB
:1007800008BF704730B511F0004502D5404261EB1B
:1007900041014FF4806404F132045FEA915C3FF45C
:1007A000DCAE4FF003025FEADC0C18BF03325FEAF5
:1007B000DC0C18BF033202EBDC02C2F1200300FAAA
:1007C00003FC20FA02F001FA03FE40EA0E0021FACF
:1007D00002F11444C1E600BF70B54FF0FF0C4CF4B9
:1007E000E06C1CEA11541DBF1CEA135594EA0C0F6F
:1007F00095EA0C0F00F0DEF82C4481EA030621EAAA
:100800004C5123EA4C5350EA013518BF52EA0335E4
:1008100041F4801143F4801338D0A0FB02CE4FF096
:100820000005E1FB02E506F00042E0FB03E54FF0C6
:100830000006E1FB03569CF0000F18BF4EF0010EBE
:10084000A4F1FF04B6F5007F64F5407404D25FEABA
:100850004E0E6D4146EB060642EAC62141EA55516D
:100860004FEAC52040EA5E504FEACE2EB4F1FD0CAF
:1008700088BFBCF5E06F1ED8BEF1004F08BF5FEA2D
:10088000500E50F1000041EB045170BD06F00046DF
:1008900046EA010140EA020081EA0301B4EB5C048C
:1008A000C2BFD4EB0C0541EA045170BD41F4801184
:1008B0004FF0000E013C00F3AB8014F1360FDEBFA9
:1008C000002001F0004170BDC4F10004203C35DA85
:1008D0000C341BDC04F11404C4F1200500FA05F308
:1008E00020FA04F001FA05F240EA020001F00042A9
:1008F00021F0004110EBD37021FA04F642EB06011F
:100900005EEA430E08BF20EAD37070BDC4F10C0448
:10091000C4F1200500FA04F320FA05F001FA04F20C
:1009200040EA020001F0004110EBD37041F10001F8
:100930005EEA430E08BF20EAD37070BDC4F1200503
:1009400000FA05F24EEA020E20FA04F301FA05F26B
:1009500043EA020321FA04F001F0004121FA04F213
:1009600020EA020000EBD3705EEA430E08BF20EAE3
:10097000D37070BD94F0000F0FD101F0004640001D
:1009800041EB010111F4801F08BF013CF7D041EA9F
:10099000060195F0000F18BF704703F000465200A3
:1009A00043EB030313F4801F08BF013DF7D043EA74
:1009B0000603704794EA0C0F0CEA135518BF95EA2A
:1009C0000C0F0CD050EA410618BF52EA4306D1D1B1
:1009D00081EA030101F000414FF0000070BD50EAD0
:1009E000410606BF1046194652EA430619D094EA5A
:1009F0000C0F02D150EA013613D195EA0C0F05D144
:100A000052EA03361CBF104619460AD181EA030197
:100A100001F0004141F0FE4141F470014FF000004F
:100A200070BD41F0FE4141F4780170BD70B54FF0EA
:100A3000FF0C4CF4E06C1CEA11541DBF1CEA13556A
:100A400094EA0C0F95EA0C0F00F0A7F8A4EB05044C
:100A500081EA030E52EA03354FEA013100F0888043
:100A60004FEA03334FF0805545EA131343EA12630C
:100A70004FEA022245EA111545EA10654FEA0026C1
:100A80000EF000419D4208BF964244F1FD0404F57A
:100A9000407402D25B084FEA3202B61A65EB0305D6
:100AA0005B084FEA32024FF480104FF4002CB6EB93
:100AB000020E75EB030E22BFB61A754640EA0C0013
:100AC0005B084FEA3202B6EB020E75EB030E22BF53
:100AD000B61A754640EA5C005B084FEA3202B6EB94
:100AE000020E75EB030E22BFB61A754640EA9C0053
:100AF0005B084FEA3202B6EB020E75EB030E22BF23
:100B0000B61A754640EADC0055EA060E18D04FEAE0
:100B1000051545EA16754FEA06164FEAC30343EA80
:100B200052734FEAC2025FEA1C1CC0D111F4801F4D
:100B30000BD141EA00014FF000004FF0004CB6E746
:100B400011F4801F04BF01430020B4F1FD0C88BFE5
:100B5000BCF5E06F3FF6AFAEB5EB030C04BFB6EBF0
:100B6000020C5FEA500C50F1000041EB045170BDE3
:100B70000EF0004E4EEA113114EB5C04C2BFD4EB10
:100B80000C0541EA045170BD41F480114FF0000E94
:100B9000013C90E645EA060E8DE60CEA135594EA10
:100BA0000C0F08BF95EA0C0F3FF43BAF94EA0C0F13
:100BB0000AD150EA01347FF434AF95EA0C0F7FF488
:100BC00025AF104619462CE795EA0C0F06D152EADC
:100BD00003353FF4FDAE1046194622E750EA4106C0
:100BE00018BF52EA43067FF4C5AE50EA41047FF4D1
:100BF0000DAF52EA43057FF4EBAE12E74FF0FF3C36
:100C000006E000BF4FF0010C02E000BF4FF0010C06
:100C10004DF804CD4FEA410C7FEA6C5C4FEA430C7F
:100C200018BF7FEA6C5C1BD001B050EA410C0CBFCE
:100C300052EA430C91EA030F02BF90EA020F002030
:100C4000704710F1000F91EA030F58BF994208BF97
:100C500090422CBFD8176FEAE37040F00100704754
:100C60004FEA410C7FEA6C5C02D150EA013C07D1AB
:100C70004FEA430C7FEA6C5CD6D152EA033CD3D0F6
:100C80005DF8040B704700BF8446104662468C46F0
:100C90001946634600E000BF01B5FFF7B7FF002823
:100CA00048BF10F1000F01BD4DF808EDFFF7F4FF4C
:100CB0000CBF012000205DF808FB00BF4DF808EDD7
:100CC000FFF7EAFF34BF012000205DF808FB00BFFA
:100CD0004DF808EDFFF7E0FF94BF012000205DF81C
:100CE00008FB00BF4DF808EDFFF7CEFF94BF0120D1
:100CF00000205DF808FB00BF4DF808EDFFF7C4FFCA
:100D000034BF012000205DF808FB00BF4A0011D26B
:100D100012F5001211D20DD56FF47873B3EB625255
:100D20000ED44FEAC12343F0004343EA505323FA61
:100D300002F070474FF00000704750EA013002D1D6
:100D40004FF0FF3070474FF0000070474FEA41020C
:100D5000B2F1E04324BFB3F5001CDCF1FE5C0DD919
:100D600001F0004C4FEAC0024CEA5070B2F1004F63
:100D700040EB830008BF20F00100704711F0804F66
:100D800021D113F13872BCBF01F00040704741F42B
:100D900080114FEA5252C2F11802C2F1200C10FA2F
:100DA0000CF320FA02F018BF40F001004FEAC12313
:100DB0004FEAD32303FA0CFC40EA0C0023FA02F3B7
:100DC0004FEA4303CCE77FEA625307D150EA01338D
:100DD0001EBF4FF0FE4040F44000704701F000405D
:100DE00040F0FE4040F40000704700BF80F000403B
:100DF00002E000BF81F0004142001FBF5FEA4103F3
:100E000092EA030F7FEA226C7FEA236C6AD04FEAF2
:100E10001262D2EB1363C1BFD21841404840414037
:100E2000B8BF5B42192B88BF704710F0004F40F4E9
:100E3000000020F07F4018BF404211F0004F41F405
:100E4000000121F07F4118BF494292EA030F3FD0D1
:100E5000A2F1010241FA03FC10EB0C00C3F12003E4
:100E600001FA03F100F0004302D5494260EB400073
:100E7000B0F5000F13D3B0F1807F06D340084FEADE
:100E8000310102F10102FE2A51D2B1F1004F40EBD3
:100E9000C25008BF20F0010040EA0300704749003B
:100EA00040EB000010F4000FA2F10102EDD1B0FA06
:100EB00080FCACF1080CB2EB0C0200FA0CF0AABFFB
:100EC00000EBC25052421843BCBFD0401843704799
:100ED00092F0000F81F4000106BF80F4000001329F
:100EE000013BB5E74FEA41037FEA226C18BF7FEA76
:100EF000236C21D092EA030F04D092F0000F08BFB8
:100F00000846704790EA010F1CBF0020704712F09E
:100F10007F4F04D1400028BF40F00040704712F1DD
:100F200000723CBF00F50000704700F0004343F042
:100F3000FE4040F4000070477FEA226216BF084678
:100F40007FEA23630146420206BF5FEA412390EA3B
:100F5000010F40F4800070474FF0000304E000BF31
:100F600010F0004348BF40425FEA000C08BF7047E2
:100F700043F0964301464FF000001CE050EA0102A6
:100F800008BF70474FF000030AE000BF50EA0102BB
:100F900008BF704711F0004302D5404261EB4101A8
:100FA0005FEA010C02BF84460146002043F0B643CD
:100FB00008BFA3F18053A3F50003BCFA8CF2083AF2
:100FC000A3EBC25310DB01FA02FC634400FA02FCFB
:100FD000C2F12002BCF1004F20FA02F243EB020002
:100FE00008BF20F00100704702F1200201FA02FC64
:100FF000C2F1200250EA4C0021FA02F243EB020057
:1010000008BF20EADC7070474FF0FF0C1CEAD0529A
:101010001EBF1CEAD15392EA0C0F93EA0C0F6FD05B
:101020001A4480EA010C400218BF5FEA41211ED039
:101030004FF0006343EA501043EA5111A0FB013125
:101040000CF00040B1F5000F3EBF490041EAD371FA
:101050005B0040EA010062F17F02FD2A1DD8B3F176
:10106000004F40EBC25008BF20F00100704790F0E5
:10107000000F0CF0004C08BF49024CEA502040EA37
:1010800051207F3AC2BFD2F1FF0340EAC2507047FD
:1010900040F400004FF00003013A5DDC12F1190F3B
:1010A000DCBF00F000407047C2F10002410021FAAD
:1010B00002F1C2F1200200FA02FC5FEA310040F1C5
:1010C000000053EA4C0308BF20EADC70704792F03E
:1010D000000F00F0004C02BF400010F4000F013A76
:1010E000F9D040EA0C0093F0000F01F0004C02BF71
:1010F000490011F4000F013BF9D041EA0C018FE7E0
:101100000CEAD15392EA0C0F18BF93EA0C0F0AD0E5
:1011100030F0004C18BF31F0004CD8D180EA01000B
:1011200000F00040704790F0000F17BF90F0004FA4
:10113000084691F0000F91F0004F14D092EA0C0F86
:1011400001D142020FD193EA0C0F03D14B0218BF19
:10115000084608D180EA010000F0004040F0FE405F
:1011600040F40000704740F0FE4040F440007047FB
:101170004FF0FF0C1CEAD0521EBF1CEAD15392EA7A
:101180000C0F93EA0C0F69D0A2EB030280EA010C6A
:1011900049024FEA402037D04FF0805343EA111103
:1011A00043EA10130CF000408B4238BF5B0042F161
:1011B0007D024FF4000C8B4224BF5B1A40EA0C0006
:1011C000B3EB510F24BFA3EB510340EA5C00B3EB38
:1011D000910F24BFA3EB910340EA9C00B3EBD10F26
:1011E00024BFA3EBD10340EADC001B0118BF5FEA78
:1011F0001C1CE0D1FD2A3FF650AF8B4240EBC250A1
:1012000008BF20F0010070470CF0004C4CEA502061
:101210007F32C2BFD2F1FF0340EAC250704740F4B0
:1012200000004FF00003013A37E792F0000F00F0A2
:10123000004C02BF400010F4000F013AF9D040EA20
:101240000C0093F0000F01F0004C02BF490011F4B4
:10125000000F013BF9D041EA0C0195E70CEAD153AC
:1012600092EA0C0F08D142027FF47DAF93EA0C0F93
:101270007FF470AF084676E793EA0C0F04D14B0277
:101280003FF44CAF08466EE730F0004C18BF31F029
:10129000004CCAD130F000427FF45CAF31F0004323
:1012A0007FF43CAF5FE700BF4FF0FF3C06E000BFBC
:1012B0004FF0010C02E000BF4FF0010C4DF804CDDF
:1012C0004FEA40024FEA41037FEA226C18BF7FEAEF
:1012D000236C11D001B052EA530C18BF90EA010FF1
:1012E00058BFB2EB030088BFC81738BF6FEAE17080
:1012F00018BF40F0010070477FEA226C02D15FEA1C
:10130000402C05D17FEA236CE4D15FEA412CE1D087
:101310005DF8040B704700BF844608466146FFE74E
:101320000FB5FFF7C9FF002848BF10F1000F0FBD30
:101330004DF808EDFFF7F4FF0CBF012000205DF829
:1013400008FB00BF4DF808EDFFF7EAFF34BF0120AE
:1013500000205DF808FB00BF4DF808EDFFF7E0FF47
:1013600094BF012000205DF808FB00BF4DF808ED98
:10137000FFF7D2FF94BF012000205DF808FB00BFFB
:101380004DF808EDFFF7C8FF34BF012000205DF8DD
:1013900008FB00BF002100F004B80C4B5B58435021
:1013A00004310B480B4B42189A42FFF4F6AF0A4A3D
:1013B00000F003B8002342F8043B084B9A42FFF4C4
:1013C000F9AF04F00FFA01F0D7FC7047A0830008D2
:1013D00000000020E8020020E8020020C4160020DF
:1013E000FFF7FEBF10B5012088B003F01DFB2120E0
:1013F00003F0E2FB0028FAD0174802F06FFE01214B
:101400004FF4007003F09CFB4FF4803308A840F8C1
:101410001C3D02F0A9FE02A802F09AFE012400235E
:101420000D4802A902938DF80C308DF80D3004930D
:1014300006938DF81C4002F065FE0748214602F035
:101440009DFE0548402102F040FF0028F9D0012010
:1014500002F09EFE08B010BD0024014008B5014610
:1014600001220948062302F09FFE074802F025FFEB
:101470000548022102F029FF0028F9D0024802F0B5
:1014800021FF00B208BD00BF0024014000000000A1
:1014900010B54FF480610446114803F091F9B8B1DA
:1014A0002046FFF745F900220E4BFEF7E1FF0AA3A5
:1014B000D3E90023FFF7BAFA00220B4BFFF78CF9B0
:1014C000FFF724FCC0B228B1632828BF632010BDF9
:1014D000642010BD012010BD303333333333E33F7C
:1014E000000C024000000C4000005940AFF30080A7
:1014F00030B51F4B93B0B3F90000FFF707F9002296
:101500001C4BFFF769F904460A200D46FFF7A6FFBA
:10151000FFF7FCF802460B4620462946FFF75CF928
:10152000044611200D46FFF799FFFFF7EFF80EA3D1
:10153000D3E90023FFF750F902460B46204629461F
:10154000FFF774FAFFF702FCFFF7F2F80B460221EF
:101550000246009102A804F003FC411C064800F07A
:10156000D7FA13B030BD00BF0000000000FEAF404E
:10157000F800F81F0000184010810008AFF3008049
:1015800038B5174BB3F90000FFF7C0F80022154B30
:10159000FFF722F904460A200D46FFF75FFFFFF729
:1015A000B5F802460B4620462946FFF715F90446D2
:1015B00011200D46FFF752FFFFF7A8F806A3D3E965
:1015C0000023FFF709F902460B4620462946FFF79C
:1015D0002DFAFFF7BBFB38BD0000000000FEAF4056
:1015E000F800F81F0000184082B0EFF31083019359
:1015F00072B6074A07490023137053709370D37073
:101600005160054A1360019B83F3108802B0704754
:10161000C816002000200000E8020020031D072B50
:1016200088BFC31D37B51D498CBF23F003030823B2
:101630008B4230D8EFF31082019272B6184A03F150
:1016400008005268824294BF0A461648144998BF5F
:1016500000200C6844B165689D4203D395429CBF4D
:101660002A4608462146F4E788B101684D68EA1A1F
:10167000082A04D80B68224603602B4600E04A6023
:1016800088188B50084A043011680B441360019B82
:1016900083F3108800E0002003B030BD002000007C
:1016A000C816002018630008E8020020194B73B523
:1016B00098422DD9184A90422AD2021F50F8044C61
:1016C000EFF31081019172B6196819B18A4201D9FC
:1016D0000B46F9E75D685E19B24205D9046040F82F
:1016E000041C1A60134601E025445D601A6842B18B
:1016F00059685818824204D85068126801445960E9
:101700001A60064B1A68141B1C60019B83F3108837
:1017100002B070BDC8160020C8360020E8020020C4
:1017200070B505460E460024AC4206DA305D04F082
:1017300047FA0028FAD00134F6E7002070BD2DE901
:10174000E7410F46984602A9831801F8013D054676
:1017500001201646FFF7E4FF39462846FFF7E0FF71
:1017600030464146FFF7DCFF03B0BDE8E0810000F2
:1017700008B504F077F904484FF4005103F026F857
:10178000024A034B1A6008BD000802403F170008D8
:10179000FC03002070B5354D2B78032B63D8DFE8B0
:1017A00003F0020F5731314C601C04F03BFA002863
:1017B00059D02F4B1B68A3600123E360237052E0D4
:1017C0002A4CEB68601C184404F02CFA78B1E368EA
:1017D0000133042B01D0E36009E0A3780020E0602E
:1017E00013B10323237070BD022222703BE0204B13
:1017F0001A68AB68D31A642B35D91C4B00221A70B7
:10180000012070BD194CE86804F11006304404F062
:1018100009FA90B1E368A27801339342E3600CD1F6
:101820000025D4F80100257000F026F810B94FF01B
:10183000FF3070BD8368304614E00D4B1A68AB680A
:10184000D31A642B0FD9094B00221A70022070BDE5
:101850000023D5F801002B7000F00EF80028E6D028
:10186000836804489847002070BD00BFEC02002048
:10187000FC140020FC02002082B001060190C0F39D
:1018800007434FEA10620AD5092B15D80C4901EB22
:10189000C300007990420FD951F8333009E0092B89
:1018A0000AD8074901EBC30393F85410914203D9B6
:1018B0001B6D53F8220000E0002002B0704700BF0B
:1018C000000000200FB4F0B587B00CA810F8047B1E
:1018D0000C237B43444C0090E218E35855680022E7
:1018E000019302A91346A446002D6CD005F00F0405
:1018F000023C092C65D8DFE804F01D1D1414050511
:101900002121364C04680431260A01F8044C01F800
:10191000036C260C240E01F8026C01F8014C043013
:101920004FE006680C4604F8026BC6F307264E70BB
:10193000043045E0046804300C7012E0044654F8AA
:10194000083B0B709AB29DF805309DF80460134473
:101950009BB28DF8053046EA13238DF804304368B6
:10196000204601312DE0046806312678043001F864
:10197000066C667801F8056CA67801F8046CE678C8
:1019800001F8036C267901F8026C647901F8014CC6
:1019900017E0064656F8083B0C469AB204F8023B9C
:1019A000130A4B709DF805309DF8041013449BB248
:1019B0008DF8053041EA13238DF804304368304632
:1019C00021462D0990E709490D683DB10C2404FB1F
:1019D00007C7787801A90430C0B2A84707B0BDE8AE
:1019E000F04004B0704700BF20630008FC030020F3
:1019F000704770477047704770477047704770472F
:101A0000704770477047704770477047704770471E
:101A1000704770477047704770477047704770470E
:101A200070477047704770477047704770477047FE
:101A300070477047704770477047704770477047EE
:101A400070477047704770477047704770477047DE
:101A500070477047704770477047704770477047CE
:101A600070477047704770477047704770477047BE
:101A700070477047704770477047704770477047AE
:101A8000704770477047704770477047704770479E
:101A9000704770477047704770477047704770478E
:101AA000704770477047704770477047704770477E
:101AB000704770477047704770477047704770476E
:101AC000704770477047704770477047704770475E
:101AD000704770477047704770477047704770474E
:101AE0007047704770477047704770470A2810B5B5
:101AF000044604D10D2004F031F80028FAD0204625
:101B000004F02CF80028FAD0204610BD03F060BF86
:101B10000FB407B504AA52F8041B0448019204F05C
:101B2000C9F903B05DF804EB04B07047ED1A000882
:101B300008B54FF48050012103F01AF84FF480509B
:101B4000002103F015F84FF48050012102F0ECFF62
:101B5000BDE8084002F0C0BB38B505460C4602F0AF
:101B6000BBFB2846A108BDE8384002F0BBBB000023
:101B7000F0B5002385B007464FF08022FA500433B9
:101B8000B3F5006FF8D12B4D284602F064F82C46CF
:101B9000002831D1EFF31083019372B6264B02AEC9
:101BA00095E8030086E8030093E80300019B85E8BD
:101BB000030083F31088304602F030F8054680B108
:101BC0002B6853B1686839464FF48062984720B15A
:101BD0002946184802F007F8EDE7284601F0E8FF2B
:101BE000E9E7237A1BB9134B01221A7220E0134B49
:101BF0004FF400721A601BE02B7A13B100232B7292
:101C000016E00E4B4FF000721A6003F5A843043340
:101C10001A6822F001021A60094B1A6822F48052F5
:101C20001A60084A138823F001031B041B0C13805D
:101C300005B0F0BD0004002000700008180C024040
:101C4000007400400010004010B52D4888B00121FC
:101C500002F06AFF2B48012102F07EFF2A482B493F
:101C600002F076FD2A492B4802F072FD2A4B4FF014
:101C700000721A6002F044FB284803F02BFA28484F
:101C800002F082FB0020274902F048FB04204FF4B9
:101C9000004102F069FB0121002002F055FB04A87D
:101CA00002F0DAFE069B45F2226203F52C53113353
:101CB000B3FBF2F30024194801A90293ADF80C40DC
:101CC000ADF80640ADF8044003F070FA1348202147
:101CD00003F098FA1248144902F0CEFB104806218E
:101CE000012202F0F5FB114801F016FF104B4FF0F6
:101CF0008022E2500434B4F5805FF7D108B010BD03
:101D0000090000011000002000000240786E000869
:101D1000806E0008000C0240180C024000100040C9
:101D20001C600240886E0008986E0008C46E0008AF
:101D30000C04002073B50E46054608B9002039E0B2
:101D4000082001F02BFF04460028F7D080E860004F
:101D5000EFF31083019372B6174D2146284601F028
:101D600042FF0646F8B1297AC1B9144B05F10C02BD
:101D7000DA604FF400625A60114A5162196841F00A
:101D8000010119600F4B196841F4805119601388E3
:101D90009BB243F00103138001232B72019B83F359
:101DA0001088012006E0019B83F31088204601F093
:101DB000FFFE304602B070BD000400201C600240EF
:101DC00000100040007400400388194481F31003A0
:101DD0000380704701FB000000F5004000147047CD
:101DE00010B50D4C04232360402002F079FB28B18C
:101DF000402002F083FB0948FFF7BAFE202002F0E2
:101E00006FFB28B1202002F079FB0548FFF7B0FEF8
:101E10004FF48023236010BD180402400C040020FE
:101E20000C0C002008B50B46C1F540518A4208D27F
:101E300002F1006101F500211A46FEF781F9002048
:101E400008BD012008BD2DE9F74307468846154621
:101E5000EFF31083019372B6C1F540539A423CD21E
:101E600002F09CFB4FEA98092E4600244C450AD00C
:101E70007B1B06F10060995900F5002002F0F8FB89
:101E800004360134F2E708F00308A300B8F1020FAA
:101E900007EB03061D4402D0A8442C460AE005F1D6
:101EA000006037F8241000F5002002F0D0FB02F0AB
:101EB00085FB10E0444509D0731B04F10060195DF7
:101EC00000F5002002F0B2FB0134F3E702F076FBEC
:101ED000019B83F31088002000E0012003B0BDE8DF
:101EE000F083000070B5374C44F6206323806423F0
:101EF000A385354B354963604FF6FF736361A36279
:101F00006363142363870323314A84F869300E2303
:101F10004FF47A7084F86C30852300250126A06088
:101F20002161A261E06161622263E38741F2545260
:101F3000A4F84230274940F6AA2304F14400A287BE
:101F4000A4F84030E5602562A670E67084F8385049
:101F500084F8685084F8655084F8665084F86750B7
:101F600084F86B6084F86A6004F048F91A4B1A68C8
:101F700094F84F30134484F84F30184B1A6894F893
:101F80005130134484F85130154B1B68A365154B31
:101F90001B68E365144B1B6884F86460236602F0D9
:101FA0009BF920461A2102F09DF9742120672A46E8
:101FB0002046FFF748FF216F0C48BDE87040FFF74F
:101FC000A7BD00BF0C1400206C68A7078038010073
:101FD00045241A096B810008906F00088C6F000877
:101FE000D000F81FD400F81FE400F81F7A81000821
:101FF00082B0EFF31083019372B600239942C3803D
:1020000003810CBF0323012303808180019B83F3A1
:10201000108802B070470088704782B00346EFF323
:102020001080019072B6188820EA020211431980CC
:10203000019B83F3108802B0704782B0EFF31083E6
:10204000019372B60378DA071ED419B1C38803442A
:102050001B7B0B70C388828801339BB29A42C3807A
:102060009CBF0023C380C28803899A4203D10378AE
:1020700043F00103037003786FF341030370019B86
:1020800083F31088012006E043F004030370019BF2
:1020900083F31088002002B0704782B059B3EFF389
:1020A0001083019372B60378C3F34002DAB903894F
:1020B0000978034419730389818801339BB29942DB
:1020C000038198BF02810389C2889A4203D10378B1
:1020D00043F00203037003786FF300030370019B66
:1020E00083F3108807E043F008030370019B83F338
:1020F0001088002000E0012002B070472DE9F74F62
:10210000DFF86081524F534E404602F0C3FA524D01
:10211000384602F0BFFA304602F0BCFA284602F018
:10212000B9FA4E4BDFF840B11846DFF840A10093F2
:10213000DFF83C9102F0AEFA584602F0ABFA504696
:1021400002F0A8FA4846464C02F0A4FAFF2001210A
:1021500002F0EAFC40464FF4407102F040FB40467A
:10216000214602F0F5FA404604F1080102F0F0FAC7
:1021700004F1100211464046019202F0E9FA384695
:102180004FF4884102F02BFB384604F1180102F0AD
:10219000DFFA384604F1200102F0DAFA019A3846F3
:1021A000114602F0D5FA30464FF4807102F017FB69
:1021B000304604F1280102F0CBFA304604F1300138
:1021C00002F0C6FA304604F1380102F0C1FA28469E
:1021D00040F2931102F003FB284604F1400102F0A3
:1021E000B7FA284604F1480102F0B2FA284604F191
:1021F000500102F0ADFA009B0021184602F0EFFA00
:10220000009B04F15801184602F0A2FA584600213A
:1022100002F0E5FA584604F1600102F099FA5046DE
:10222000002102F0DCFA504604F1680102F090FA55
:102230004846002102F0D3FA484604F1700102F04A
:1022400087FAE020002103B0BDE8F04F02F06CBC3B
:102250000004024000080240000C0240001002404E
:10226000C86E00080000024000180240001C024036
:10227000001402402DE9F743224EDFF89490012527
:1022800002274FF480633046694602AC8DF8047033
:1022900044F8083D8DF805508DF8075002F058FAC3
:1022A00008234846694600934FF0030802F050FAAD
:1022B0008DF80470122300274846694600938DF874
:1022C00005808DF8077002F043FA4FF4C45330468E
:1022D000694600938DF804808DF805508DF80770DD
:1022E00002F036FA042369460748009302F030FAF8
:1022F0004FF6FF7305486946009302F029FA03B0D0
:10230000BDE8F083000002400004024000100240DB
:10231000000C024038B5124D01462B6853B11A68C3
:1023200012B15868904702E05B6803B118702868E2
:1023300001F03EFC0B4C0C48A38823F4E0631B0423
:102340001B0CA38001F06AFC286038B1A3889BB203
:1023500043F44073A38040F20113238038BD00BFD3
:102360008014002000540040841400202DE9F3471D
:10237000074614208846924699460B9E0C9D01F014
:102380000DFC0446002833D00A9B077280F80980B0
:10239000A0F80AA0C0F80C90036106604560EFF356
:1023A0001083019372B61448036853B9134B046049
:1023B0009A8892B242F440729A8040F201121A80D6
:1023C0000DE00430214601F00EFC074638B9019BB0
:1023D00083F31088204601F0EBFB384608E016B97D
:1023E0000DB180232B70019B83F310880120FFE740
:1023F00002B0BDE8F08700BF801400200054004008
:1024000010B586B0089C0094002401940DF11704C7
:102410000294FFF7ABFF20B19DF81730802BFBD063
:1024200002E010238DF817309DF8170006B010BD9C
:1024300038B50220012102F077FB4FF40010012192
:1024400002F08AFB4FF40010012102F0A9FB4FF4C7
:102450000010002102F0A4FB3049314802F078F965
:10246000304C012003F0FEF84FF44073236001204C
:1024700003F0F8F809252A4B1B8A9B050FD44FF06F
:1024800080732360012003F0EDF8013D4FF4807369
:1024900023600120ADB203F0E5F8002DEBD14FF041
:1024A00000732360012003F0DDF84FF08073236098
:1024B000012003F0D7F84FF480732360012003F06C
:1024C000D1F84FF400732360012003F0CBF8164BD2
:1024D00016491A1D03C982E8030000221448154951
:1024E0001A6002F091F90E480821042202F079F9ED
:1024F00004220B48092102F074F90F49084802F040
:1025000027F90E4801F008FB0D4801F005FBBDE876
:1025100038400748012102F0E5B900BF406F0008CC
:1025200000040240180402408014002000700008DB
:1025300000540040486F0008586F0008606F0008A2
:10254000646F000838B55448042102F03FF9534B3A
:10255000534C9B8A13F0010F0CD023681A7A5B7AD4
:1025600002F00702012A4D4A0CBF43F0010303F0B9
:10257000FE031382494B9A8A92070ED5226812698C
:10258000012A04D91A8892B242F480621A809A8889
:1025900092B242F480629A801B8B22683F4B998AE8
:1025A0000D0621D5117A480705D521F004011172D5
:1025B0005189090A08E001F0020000F0FF0528B186
:1025C00021F002011172917A1982E7E7C90710D54B
:1025D0009A8822F480621204120C9A801A8892B2AD
:1025E00042F480721A801D822C498B8A5B0623D4A8
:1025F0004BE0106990B10138106128B9998821F435
:1026000080610904090C9980D3681BB1591CD16001
:102610001B7800E0FF23214A1382E5E7998821F423
:10262000E0610904090C9980198889B241F40071AC
:102630001980D060107225E023681A69022A05D13A
:102640000A8822F480621204120C0A80098ADA686D
:10265000C9B212B1501CD86011701A691AB1013A8E
:102660001A61002AC0D10D4900208A8822F4E06254
:102670001204120C8A800A8892B242F400720A8014
:10268000D8601872FFF746FEAEE703480421BDE8A4
:10269000384002F09DB800BF0004024000540040E2
:1026A000801400200E4B0F4A998A01F4407131B119
:1026B0004FF400711980136883B120200BE0998AD0
:1026C000490506D54FF400711980136833B14020D5
:1026D00001E0136810201872FFF71CBE704700BF9E
:1026E000005400408014002002213D200A46FFF7DC
:1026F000E9B80000054B01221A7044204FF4A07184
:102700004FF4F0720723FFF7DDB800BF8C140020F0
:10271000054B02211A783D20012A04BF02221A70BB
:102720000A46FFF7CFB800BF8C14002002887AB9A0
:10273000084B1978022903D136200121FFF7C2B8CE
:10274000062903D1092119705A70704706221A70A0
:10275000704700BF8C140020014B06221A7070478E
:102760008C1400200278024B9A7007221A7070476E
:102770008C14002000200146FFF7A4B810B50A4CC5
:1027800001230A484FF48061E37002F019F820B188
:10279000052323700023637010BD02213D200A46EB
:1027A000BDE81040FFF78EB88C140020000C0240EA
:1027B00073B5B0F801300446083B3A4E2B2B6CD869
:1027C000DFE803F0166B6B6B196B6B1C6B6B1F6B8D
:1027D0006B226B6B256B6B326B6B356B6B386B6B7A
:1027E0003B6B6B466B6B426B6B556B6B5C6B6B63E4
:1027F000017800964CE001782B4B20E001782B4BC0
:1028000007E001782A4B34E001782A4B31E0017867
:10281000294B0093002201231E20FFF753F8274B7A
:1028200000221A715A7138E00178254B07E00178CF
:10283000244B0BE00178244B29E00178234B0093D3
:102840001E200022022326E00178214B00930AE09B
:10285000204D0020294602F0A5FA291D002002F093
:102860000BFB217800951E200022082313E001783D
:10287000194B00931E20002214230CE0174B017803
:10288000002200931E200C2305E00178144B0093D6
:102890001E2000220123FFF715F80023737002B0F9
:1028A00070BD00BFC80200200C1400200E140020D0
:1028B00010140020241400200F1400208C14002079
:1028C000381400203C14002044140020461400203A
:1028D00048140020711400205014002064140020BB
:1028E00070140020014B01225A707047C80200206A
:1028F00070B5438804460C3B272B00F2E880DFE8E4
:1029000013F02800E600E6003400E600E6003F0091
:10291000E600E6005500E600E6006600E600E60098
:102920006D00E600E6007500E600E6007B00E600CC
:10293000E6008300E600E600A400E600E6009A0058
:10294000E600E600B700E600E600D100E600E6009B
:10295000DD008379022B40F0BA80634BB0F807208A
:102960001A80188802F0A2FD1CE08379012B40F048
:10297000AE805D4AC17991705C4A9371D371A6E0D3
:102980008379142B40F0A380594AC31D00F1170628
:1029900018685968154603C50833B3422A46F7D16B
:1029A00018681060514B01229A7190E08379142BC2
:1029B00040F08D804F4AC31D00F117061868596812
:1029C000154603C50833B3422A46F7D1E8E78379B1
:1029D000012B7CD1C179444AD17076E08379022BF6
:1029E00075D1B0F80720444B1A80DBE78379082BB8
:1029F0006DD10246414B23E08379012B67D1C17928
:102A0000394A82F8381060E08379022B5FD1B0F840
:102A100007303B4A012122F83A39344B528F9971E1
:102A20004FF47A714A4343F697218A42C8BF43F66E
:102A300098229A604BE08379082B48D1314B0246AB
:102A400052F8070F516803C3ACE78379082B3ED1D6
:102A500002462D4D52F8073F29462B60536800204F
:102A60006B6002F053F9291D002002F0BDF92EE041
:102A70008379142B2BD1254AC31D00F11706186842
:102A80005968154603C50833B3422A46F7D118687A
:102A90001F4928601D48FDF7C9FB002882D1FFF7B8
:102AA00021FA14E083790C2B11D1024652F8070F5A
:102AB000184B516803C39068186073E78379012B42
:102AC00005D1C179084A82F86410084A9371637885
:102AD000022B07D100221F202178FEF7F3FE0E4BB8
:102AE00000225A7070BD00BF0C1400208C1400200E
:102AF0001014002024140020381400203C1400205E
:102B000046140020481400207114002050140020A6
:102B10008681000864140020C8020020014B0122B5
:102B20005A707047C802002090F901100148FEF762
:102B3000EFBF00BF8D81000810B50E4CE06860B19A
:102B400002F022FD0023E3600B484FF4007101F016
:102B500037FE0028F8D1207406E007484FF40071D2
:102B600001F02EFE0028F8D100200146BDE81040FB
:102B700001F0EABB8C140020000C024073B5414AFE
:102B8000D3781546012B47D13F4C0026E0682674C8
:102B900010B102F0F9FCE6602379042B6FD8DFE86E
:102BA00003F003101C2732006279374B002A66D0ED
:102BB000AA8D364991FBF2F25A6152089A610122BC
:102BC00014E0334B281D1B68E361AB8A00930FC8E8
:102BD00002F076FC0223206213E02D4B1A68E369B1
:102BE000D31AA26993424AD30322274B1A7146E0B3
:102BF0002B8D05F1180000930FC802F061FC04232F
:102C0000606223713BE0224B1A68E369D31A626960
:102C1000934234D30022E8E7FBB91B4C2371237C99
:102C200013B1012B11D02AE0637943B3938E4FF493
:102C30007A710093106B42F210734FF0FF3202F082
:102C40003FFC0123E060237419E06579BDB9E068B9
:102C500002F09AFCE560257411E0022B0FD10A4CBA
:102C60000025E368257125744BB10A484FF40071C3
:102C70002A4601F0AFFDE06802F086FCE56002B094
:102C800070BD00BF0C1400208C140020C0D40100C3
:102C9000FC140020000C0240F8B5154C04F128008B
:102CA00000F0F6FDB4F92800FEF75AF90746B4F92A
:102CB0002A00FEF755F90646B4F92C00FEF750F944
:102CC000394605463846FEF79FF9314604463046F8
:102CD000FEF79AF901462046FEF78EF8294604468B
:102CE0002846FEF791F901462046FEF785F8F8BD23
:102CF0008C14002007B547F6FF73002100930A46A5
:102D0000054B064802F0DCFB4FF4FA7003B05DF8A7
:102D100004EB02F0A7BC00BF801A06008A483412F8
:102D200007B547F6FF73002100930A46054B064896
:102D300002F0C6FB4FF4FA7003B05DF804EB02F04A
:102D400091BC00BF801A0600E22E130607B547F6B5
:102D5000FF73002100930A46054B064802F0B0FBC2
:102D60004FF4FA7003B05DF804EB02F07BBC00BFD7
:102D7000801A060086BB4C182DE9FF4702F012FCB2
:102D8000FEF7D6FEFFF7BAF9FEF7C0FEFEF75CFFCE
:102D9000FEF7EEFCFEF726FB01F020F9FFF748FBFB
:102DA00000F048FC00F0CEFC00F05FFFFFF762FA95
:102DB0009F484FF48071002201F00CFD9D499E4810
:102DC00021F0030120F003000431FEF7C5FE20B11D
:102DD000EFF31083039372B6FEE7984D98482B6883
:102DE000FEF796FEFEF7CCFBFDF7A2FC8EA3D3E91F
:102DF0000023FDF763FF07460028F3D1914E8C486E
:102E000080210122904C01F0E5FC032384F834304A
:102E100006F10A030122009306F1160331460193DD
:102E20008A481346FEF774FE316A8948FEF770FE41
:102E3000884B894E19688948FEF76AFEFEF758FBF1
:102E40008748394601F09AF901F030F93A46742181
:102E50003046FEF7E7FF96F86410824801F0010162
:102E6000FEF756FE01F038FA30461A2101F03AFA20
:102E7000336F984204D07C48FEF74AFEFFF732F8E1
:102E80007A49002001F042FF0020794901F0ACFFAF
:102E9000B378012B01D000F0B1FD308802F006FBC1
:102EA000738F4FF47A72534343F697229342C8BF0D
:102EB00043F69823A3602B6820200A21A3632F6880
:102EC00000F0B8FCFFF716FF96F86430DB070DD46E
:102ED00068484FF4806101F073FC38B194F83430E5
:102EE000022B03D0584B022283F8342094F834305C
:102EF000DFF85481022B17D198F80030072B13D13B
:102F00005C484FF4806101F05BFC68B15A4B5B7820
:102F100053B198F801303BB9202098F80210FEF721
:102F2000D1FC012388F8013094F83430DFF818819F
:102F3000022B13D198F80030062B0FD14D484FF4D7
:102F4000806101F03DFC48B198F8011031B93D2095
:102F50000A46FEF7B7FC012388F801302A68A36B04
:102F60004FF47A71D31A728F4A43934205D2364B8B
:102F700093F83430022B40F0C6803E484FF4806115
:102F800001F01EFC002800F0BE8022782E4B082A9B
:102F900040F0B98093F83C20002A40F0B480012131
:102FA000102083F8341000F045FCB378012B01D1D8
:102FB00000F024FD00F03EFDFFF7B2FEFFF7BCFD80
:102FC000202001F0E5FA402001F0E2FA012001F0B2
:102FD000DFFA102001F0DCFA284840F225510022E7
:102FE00002F0D9F90022264840F2255102F0D3F927
:102FF000244B1A6822F002021A6094F83400C0B21E
:10300000012803D1014601F0EDFCF6E70E4B93F8E1
:10301000343094F834300120042B35D1014601F0CE
:10302000E1FCF6E7AFF300806666666666660E4012
:10303000000802408B86000000000008FC140020FD
:103040009A810008686F00088C140020D081000865
:10305000ED810008888600080C1400200682000814
:10306000002401401B820008258200087114002002
:1030700075140020000C0240C802002000480040E7
:103080000038014010E000E001F0C6FC01F0A4FDB2
:10309000012802D1022001F0D5FC864B86481A682F
:1030A00040F2255142F002021A60012202F073F947
:1030B000824840F22551012202F06DF9012001F011
:1030C000B3FC212001F078FD0028FAD0032384F816
:1030D000343000F0F7FCB378012B01D100F09CFCF8
:1030E00003A802F09FFD0028FAD12F682B68012168
:1030F000A3632B68236401F027F920200A2100F044
:1031000099FBFFF7F7FD2378023B072B37D8DFE861
:1031100003F00436361E063628202F682FE00023E1
:103120002A6884F83C30A368D21B9A4227D36448AB
:103130004FF4806101F044FB08B3624B597819B930
:103140003D200A46FEF7BEFB0123637017E009230A
:1031500005E05D484FF4804101F03AFB08232370FD
:103160000DE057484FF4806101F02AFB38B900F1B7
:10317000804000F501304FF4804101F027FBE378F7
:10318000DFF84081A3B198F806304FF0000988F8C5
:1031900003906BB101F0A0F81A214C4801F0A2F89D
:1031A000742130674A464948FEF74DFE88F806907C
:1031B000FEF7F0FA012803D0022801D0013003D134
:1031C00000200146FEF77EFBB378DFF80091022B6A
:1031D00002D10123637145E0012B3CD1FFF75CFD77
:1031E0008046B9F83C00FDF7B7FE0146FDF70CFF3D
:1031F000B9F840A0814649464046FEF7A3F808B119
:103200002B68236449464046FEF7B0F8814660B11A
:103210002968226C2B4B8A1AF18F8A4222D901220B
:103220005A712B4A12689A631CE05046FDF794FECF
:103230000146FDF7E9FE01464046FEF783F888B1F6
:103240002A68A36BD31AB6F8422093420AD91D4BC1
:1032500083F8059006E0002219484FF4007162716E
:1032600001F0B8FAFFF78AFC94F84420154B82B1BC
:103270001A78082A0AD1012283F83C20FFF766FD5C
:1032800011484FF4804101F0A1FA2F68002384F81F
:103290004430E379012B7FF417AE0A4B0022DA7138
:1032A000B378012B02D100F0B7FB0DE600F0A6FBCE
:1032B0000AE600BF10E000E000480040003801408E
:1032C000000C02408C140020000402400C1400206A
:1032D000FC140020AFF30080F7B515460022044629
:1032E0000F4601921E46002B00F00C814FF6FF7333
:1032F000019320464FF4003101F04BFB30B1019BAC
:103300005A1E0192002BF4D10120FCE0204601213D
:1033100001F00CFB20464FF2FF7101F020FB20462C
:10332000012101F0EBFA4FF6FF7301932046774934
:1033300001F023FB28B9019B5A1E0192002BF5D105
:10334000E2E720463946002201F0FCFA4FF6FF730F
:10335000019320466E4901F010FB28B9019B5A1ECB
:103360000192002BF5D1CFE720469DF8201001F007
:10337000F1FA4FF6FF7301932046664901F0FDFA1A
:1033800028B9019B5A1E0192002BF5D1BCE72046BB
:10339000012101F0B3FA4FF6FF73019320465B4918
:1033A00001F0EBFA28B9019B5A1E0192002BF5D1CE
:1033B000AAE720463946012201F0C4FA4FF6FF730E
:1033C00001932046544901F0E4FA28B9019B5A1EA2
:1033D0000192002BF5D197E7012E1BD12046002149
:1033E00001F0A4FA20463146238B01F093FA4FF600
:1033F000FF7301932046494901F0CBFA28B9019B9C
:103400005A1E0192002BF5D17EE7204601F0A4FA66
:10341000287069E0022E20D12046002101F086FAB2
:1034200020464FF4006101F09AFA238B4FF6FF73A8
:10343000019320463A4901F0ACFA28B9019B5A1E83
:103440000192002BF5D15FE72046012101F062FADD
:10345000238A2B70238A6B7046E0033E238B2E4415
:103460004FF6FF73B542019316D020462C4901F068
:1034700090FA28B9019B5A1E0192002BF5D143E71F
:10348000204601F069FA05F8010BE9E7019B5A1E95
:103490000192002B3FF438AF2046214901F079FA20
:1034A0000028F3D02046002101F040FA204601F028
:1034B00053FA4FF6FF73287001932046184901F024
:1034C00068FA28B9019B5A1E0192002BF5D11BE71F
:1034D0000121204601F01EFA204601F03DFA6870F5
:1034E000204601F039FAA8704FF6FF730193204689
:1034F0000C4901F04EFA30B1019B5A1E0192002B8B
:10350000F5D101E7184603B0F0BD00BF010003008C
:103510008200070084000700020000104000001035
:103520000400001010000010F7B5154600220446F4
:103530000F4601921E460BB900206EE04FF6FF7356
:10354000019320464FF4003101F023FA30B1019B82
:103550005A1E0192002BF4D101205EE02046012189
:1035600001F0CCF94FF6FF73019320462C4901F08E
:1035700004FA28B9019B5A1E0192002BF5D1EBE702
:1035800020463946002201F0DDF94FF6FF73019322
:103590002046244901F0F1F928B9019B5A1E0192F5
:1035A000002BF5D1D8E720469DF8201001F0D2F984
:1035B0002E444FF6FF73B542019315D020461A49A9
:1035C00001F0E7F928B9019B5A1E0192002BF5D1B1
:1035D000C2E7204615F8011B01F0BCF9E9E7019BA1
:1035E0005A1E0192002BB7D020460F4901F0D1F9A5
:1035F0000028F4D02046012101F08CF94FF6FF732A
:1036000001930A480A4901F0C4F9002894D0019BAB
:103610005A1E0192002BF4D19EE703B0F0BD00BF0B
:103620000100030082000700040000100054004065
:103630001000001037B5052001213F4C01F074FA4D
:103640000120014601F07CFA21463C4801F080F857
:1036500004F108013A4801F07BF80020014601F02E
:1036600024FD04210220012501F01FFD04F11000BA
:1036700000F04EFF04F1180300953C219222022035
:10368000FEF7BEFE04F1190300953C21B022022092
:10369000FEF7B6FE04F11A0300953C21B422022085
:1036A000FEF7AEFE052300933C2104F11B039F228D
:1036B0000220FEF7A5FE04F1200300953C21AE2276
:1036C0000220FEF79DFE00953C219322002303205B
:1036D000FEF796FE00953C21B12200230320FEF761
:1036E0008FFE00953C21B52200230320FEF788FEC3
:1036F00004F1210300953C21AE220220FEF780FE5A
:103700000C2300933C2104F1220394220220FEF7B3
:1037100077FE062300933C2104F12E03A122022010
:10372000FEF76EFE00953C21A02204F13403022036
:10373000FEF766FE03B030BD946F00080000024043
:103740000008024037B504200121374C01F0ECF9A4
:103750000120014601F0F4F904F13801334800F08A
:10376000F7FF0220052101F0A0FC0220062101F054
:103770009CFC062301250093D02104F14003A022E4
:103780000220FEF73DFE04F146030095D021AE2253
:103790000220FEF735FE04F147030095D021B02248
:1037A0000220FEF72DFE07230093D02104F14803E9
:1037B000B2220220FEF724FE04230093D02104F15C
:1037C0004F03A0220220FEF71BFED0210095B0225D
:1037D00000230320FEF714FE154B002204F15400D1
:1037E0001A7000F095FE602000F0CCFE04F15C033E
:1037F0000095D021AE220220FEF702FE04F15D0307
:10380000D021A02200950220FEF7FAFD052001F04C
:1038100029FF0095D021A42204F15E030220FEF7C7
:10382000EFFD03B030BD00BF946F000800080240F8
:10383000E01400201FB501248DF80F008DF80E1044
:10384000114B009402203C21B022FEF7D9FD9DF9D6
:103850000F30002B16DD3C21B2220DF10F03009436
:103860000220FEF7CDFD3C21B3220DF10E030094A2
:103870000220FEF7C5FD009402203C21B022034B3C
:10388000FEF7BEFD04B010BDF36F0008F46F000832
:1038900082B068B1EFF31083019372B6054B5A8979
:1038A00002809A89DB8942808380019B83F31088A0
:1038B00002B07047E01400200B4B07B51A78012ABC
:1038C00001D1032209E031230093084A012308486B
:1038D0003C21FFF701FD074B01221A70064B012224
:1038E0005A6103B05DF804FBC0140020E814002006
:1038F00000540040D014002000040140F0B5002422
:1039000085B0082725462646A8230093104806239D
:103910003C2102AAFFF7E0FCBDF90830013F1E443C
:10392000BDF90A301D44BDF90C301C44ECD1094BE3
:10393000082296FBF2F695FBF2F594FBF2F45E801A
:103940009D80DC80044B10225A6105B0F0BD00BFA1
:1039500000540040E014002000040140014B2022EC
:103960005A61704700040140F0B52F2387B00093DF
:103970001F48D0210DF10F020123FFF7ADFC9DF888
:103980000F70002407F01F078DF80F70254626469C
:1039900028230093D0210DF10E0201231448FFF7D4
:1039A0009BFCAA23009312480623D02104AAFFF708
:1039B00093FCBDF91430013F1E44BDF9103017F0DF
:1039C000FF071D44BDF912301C44E1D19DF80F20C2
:1039D000084B013296FBF2F695FBF2F594FBF2F4FC
:1039E0005E819D81DC81044B40225A6107B0F0BDAD
:1039F00000540040E01400200004014007B50123FA
:103A00000093D021A022034B0220FEF7F9FC03B063
:103A10005DF804FBF56F000807B501230093D02182
:103A2000A022034B0220FEF7EBFC03B05DF804FB81
:103A3000F66F000837B50E4C012504F163030095BD
:103A40003C21A3220220FEF7DBFC04F16403009575
:103A50003C21A6220220FEF7D3FC00953C21A022A7
:103A600004F165030220FEF7CBFC03B030BD00BFBC
:103A7000946F00087FB5124D04AC002604F8016D68
:103A800022230093224628463C210123FFF74CFDC8
:103A900003238DF80F3026230093224628463C212D
:103AA0000123FFF741FD2023009328463C212246B5
:103AB00001238DF80F60FFF737FD04B070BD00BF24
:103AC0000054004037B50E4C012504F16603009503
:103AD0003C21A3220220FEF793FC04F1670300952A
:103AE0003C21A2220220FEF78BFC00953C21A02263
:103AF00004F168030220FEF783FC03B030BD00BF71
:103B0000946F000840F0BF60024B40F40030D86072
:103B1000704700BF00ED00E0C27810B503780AB32B
:103B2000164A4478D26803F16043D243C2F30222BA
:103B3000C2F10401C9B204FA01F10F2444FA02F2FD
:103B40008478C9B222400A431201D2B203F561431C
:103B500083F8002303780122590903F01F0302FAB6
:103B600003F306E05909012203F01F0302FA03F3ED
:103B70002031034A42F8213010BD00BF00ED00E0C3
:103B800000E100E0044B04281A680CBF42F0040274
:103B900022F004021A60704710E000E008B5083017
:103BA000FDF73CFD002310B103604360083008BD01
:103BB00007B5A0B1EFF31083019372B650F8083C3B
:103BC00013B950F8043C23B1019B83F31088002003
:103BD00006E0019B83F310880838FDF767FD01209C
:103BE00003B05DF804FB82B0B0B1A1B1A1F108034C
:103BF000EFF31082019272B6002241F8082C42685D
:103C000041F8042C02B113600268436002B90360FA
:103C1000019B83F31088084602B0704782B0C0B1A0
:103C2000EFF31083019372B6036873B11968002231
:103C3000016009B14A6000E042601A605A60019A6E
:103C400082F3108803F1080003E0019A82F31088E0
:103C5000184602B0704703682BB14068D0F10100EC
:103C600038BF002070470120704730B54FF08050BA
:103C700089B0012100F070FF012000F0ADFE0120AD
:103C800000F0D8FE492000F097FF0028FAD04FF44A
:103C9000803000F02BFF012000F040FF00247F2344
:103CA00008A8069340F80C4DFF23079300F0EAFFA5
:103CB000002851D0694620468DF803408DF8004019
:103CC0008DF801408DF8024001F020F804238DF8B2
:103CD0000430152301A908258DF8063020460E234F
:103CE0008DF807308DF8055001F07EF8204601F080
:103CF00001F9204601F0E0F842F29C7001F0EEF884
:103D0000012001F0F7F84FF4801000F041FC4FF46F
:103D100080138DF8115003A8012503938DF81040EE
:103D20008DF8125000F0F4FB03238DF808308DF865
:103D3000093002A802238DF80A308DF80B50FFF7E6
:103D4000EBFE4FF48040294601F0FEF84FF480402E
:103D500001F034F9204600E0012009B030BD000038
:103D600073B54FF4804001F00DF9002800F0128186
:103D7000894C2378042B62D1884B1A7812F0010207
:103D80005DD187484FF4807100F024FD012000F0E0
:103D90004BFE212000F010FF0028FAD0012000F097
:103DA00051FE8048012100F0E9F97E48402100F0F1
:103DB0008CFA0028F9D00023ADF8023004250A203F
:103DC000BDF80260FDF74AFBB6B2304486B2013D51
:103DD000ADF80260F3D1BDF80230724843F38D03B1
:103DE0009BB22946ADF8023000F0C8F901226C48B8
:103DF0004FF4807100F0EEFCBDF8022040F647035E
:103E000012B29A4205DC664880212A4600F0E2FCA4
:103E1000FEE7654B93F86430D90707D5BDF802205B
:103E200040F6DA2312B29A4240F3AC805F484FF476
:103E3000806100F0C5FC002840F0A48045E02578B2
:103E4000EDB2012D58D1554B1A7812F0010253D121
:103E500053484FF4807100F0BDFC284600F0E4FDAB
:103E6000212000F0A9FE0028FAD0012000F0EAFD90
:103E70004C48012100F082F94A48402100F025FA1F
:103E80000028F9D0002301930425019EFDF778FB5B
:103E900001463046FCF7B0FF013D0190F5D1019895
:103EA0004FF07A51FDF7B0F8294601903D4800F0F7
:103EB00065F93B484FF48071012200F08BFC3B48D0
:103EC0004FF4806100F07CFC08B9032359E00198AD
:103ED0003749FDF737FA20B9334B93F86430DA07E6
:103EE00050D432484FF4806100F06AFC002849D079
:103EF000FFF7C0FD042344E02378032B42D1274B76
:103F00001B78DB073ED526484FF48071002200F075
:103F100061FC2448012100F031F92248402100F0E1
:103F2000D4F90028F9D0002301930825019EFDF75C
:103F300027FB01463046FCF75FFF013D0190F5D1BC
:103F400001984FF07851FDF75FF829460190154828
:103F500000F014F94FF480711148012200F03AFC8E
:103F60000198FDF795FA134B114918700198FDF768
:103F7000E9F938B10D484FF4806100F021FC08B137
:103F8000022323704FF4804001F018F84FF48010A2
:103F900000F0FEFA02B070BDC014002002380240EA
:103FA00000080240002401400C140020000C0240D4
:103FB00000006040C802002008B54FF4805000F0B7
:103FC000E1FF48B14FF4805000F0F8FFBDE8084031
:103FD0004FF4003000F0DCBA08BD000070B54FF4BB
:103FE000804086B0254D0121254C00F0B5FD012112
:103FF000082000F099FD284600F0EEFF2046012140
:10400000052200F0EEFB1F4E20460321052200F0A2
:10401000E8FB05222046042100F0E3FB2046314660
:1040200000F096FB204606F1080100F091FB2046C7
:1040300040F2851100F0D3FB01A801F01EF84FF407
:1040400082720023ADF8062028464FF4007201A9C1
:10405000ADF80430ADF80830ADF80A30ADF80C30EA
:10406000ADF80E20ADF81030ADF8123000F0E6FFDC
:104070002846012101F00DF806B070BD003800405F
:10408000000C024008700008074B98811A899007BD
:10409000FCD51A89D107FCD5034B1A891206FBD42B
:1040A0009889C0B2704700BF0038004010B50A4C74
:1040B00080212046002200F08DFBB920FFF7E4FFAD
:1040C00020468021012200F085FB204604210022A9
:1040D000BDE8104000F07EBB000C024008B5084B64
:1040E00098420BD14FF40070012100F04DFDBDE866
:1040F00008404FF40070002100F046BD08BD00BF2D
:104100000024014043680A6823F0407323F480735D
:1041100013430A7910B543EA02234360CA680B6966
:1041200084681A438B681A43084B234013434A7927
:1041300043EA420383600B7D026B013B22F0F8727D
:10414000DBB242EA0353036310BD00BFFDF7FFC0BB
:10415000002303600371437183604FF04072036179
:104160000123C26003757047034B01685A6822F44B
:1041700040320A435A60704700270140836811B1FA
:1041800043F0010301E023F0010383607047000066
:10419000044B5A6810B142F4000201E022F400021C
:1041A0005A607047002701401D2970B50ED9A1F152
:1041B0001E0404EB44040725A54003FA04F4C66D6D
:1041C00026EA050545EA0403C3652DE013290ED947
:1041D000A1F1140404EB44040725A54003FA04F4F8
:1041E000C66826EA050545EA0403C3601CE0092900
:1041F0000ED9A1F10A0404EB44040725A54003FAF3
:1042000004F4066926EA050545EA040303610BE0A8
:1042100001EB41040725A54003FA04F4466926EAA8
:10422000050545EA04034361062A0CD8013A02EB6E
:1042300082021F23934001FA02F2046C24EA030372
:104240001A43026470BD0C2A0CD8073A02EB8202B2
:104250001F23934001FA02F2C46B24EA03031A43BA
:10426000C26370BD122A0CD80D3A02EB82021F23E2
:10427000934001FA02F2846B24EA03031A43826337
:1042800070BD182A0CD8133A02EB82021F23934008
:1042900001FA02F2446B24EA03031A43426370BD3D
:1042A000193A02EB82021F23934001FA02F2046BD7
:1042B00024EA03031A43026370BD836843F080431A
:1042C00083607047806D80B27047036819420CBFED
:1042D0000020012070470000014B01229A607047C6
:1042E0000030024000EB81018842044B03D050F8BB
:1042F000042B1A60F8E71868704700BF00300240CE
:1043000008B54FF00050012100F04AFCBDE808401C
:104310004FF00050002100F043BC000030B540F6E3
:10432000FE758540074B1A6822EA050591E81400DE
:1043300014438A68C96822430A4302FA00F02843FA
:10434000186030BD00740040064B012219B1824054
:1043500019680A4303E08240196821EA02021A60E0
:10436000704700BF0074004082B000230193054BEA
:104370000193019B083318440190019B196002B01E
:10438000704700BF0074004002684FF6FE73134090
:1043900003600023036043608360C3602A4B98423C
:1043A00022D02A4B984229D0294B984230D0294B11
:1043B000984237D0284B98423ED0284B984206D19D
:1043C00053F8682C42F4700243F8682C7047244B71
:1043D000984206D153F87C2C42F0706243F87C2C52
:1043E0007047204B984206D153F8042C42F00F023C
:1043F00043F8042C70471C4B984206D153F8182CF4
:1044000042F0F00243F8182C7047184B984206D13E
:1044100053F82C2C42F4706243F82C2C7047144B48
:10442000984206D153F8402C42F4704243F8402C95
:104430007047104B984205D153F8542C42F4702227
:1044400043F8542C704700BF086002401C600240D3
:104450003060024044600240586002406C6002409C
:1044600080600240086402401C64024030640240E4
:1044700044640240586402408A6810B50C6A0368BC
:1044800014430A6923F4FF4314434A6923F0700379
:1044900014438A691443CA6914434A6A14438A6AF2
:1044A000224313430360CB6843600B6883604B680F
:1044B000C36010BD19B1036843F0010303E0026853
:1044C0004FF6FE73134003607047406880B2704738
:1044D00003680AB1194301E023EA01010160704752
:1044E000C30054BF034B044B1B6803420CBF0020A6
:1044F000012070470060024000640240C30054BFC6
:10450000014B024B5860704700600240006402405B
:10451000837930B50168027943B3194BCC431D68E8
:1045200002F1804225401D605D6802F582322C4018
:104530005C6014682143116002689C68D1430C40A0
:104540009C60DC682140D9604179102906D19968C6
:1045500011439960D9680A43DA6030BD01F18043A4
:1045600003F5823319680A431A6030BD02F18043B3
:1045700003F582331A6822EA0101196030BD00BFD9
:1045800000040140014B5861704700BF0004014026
:10459000014B5861704700BF00040140044B5A684A
:1045A000D20703D5034ADA60034ADA60704700BFD6
:1045B000003C0240EFCDAB8905040302024B5A6870
:1045C00042F001025A607047003C0240084B9A6971
:1045D000D10709D49A69D20508D49B6913F4F05F16
:1045E0000CBF042003207047012070470220704751
:1045F000003C024013B5042304468DF80730FFF752
:10460000E5FF8DF807009DF80730012B06D134B186
:10461000FFF7DCFF013C8DF80700F4E714B9052330
:104620008DF807309DF8070002B010BD38B504467C
:104630004FF400400D46FFF7DDFF042806D125703A
:104640004FF40040BDE83840FFF7D4BF38BD38B55F
:1046500004464FF400400D46FFF7CCFF042806D176
:1046600025804FF40040BDE83840FFF7C3BF38BD98
:1046700038B504464FF400400D46FFF7BBFF042851
:1046800006D125604FF40040BDE83840FFF7B2BFC7
:1046900038BD000008B5264B984205D101200146DF
:1046A00000F066FA01203DE0224B984205D102203D
:1046B000012100F05DFA022034E01F4B984205D141
:1046C0000420012100F054FA04202BE01B4B9842F7
:1046D00005D10820012100F04BFA082022E0184BF8
:1046E000984205D11020012100F042FA102019E073
:1046F000144B984205D14020012100F039FA4020A6
:1047000010E0114B984205D18020012100F030FAD1
:10471000802007E00D4B984209D12020012100F0B4
:1047200027FA20200021BDE8084000F021BA08BD8A
:10473000000002400004024000080240000C024059
:104740000010024000180240001C02400014024009
:104750002DE9F0410F68002301229A4002EA070583
:10476000954228D15A00032494400668E44304EAA1
:10477000060C0E7906FA02F8013E4CEA080C012EEE
:10478000C0F800C010D8866804EA060C4E7996403E
:104790004CEA060686608688B6B226EA05058E795A
:1047A0009E40B6B235438580C5682C40CD7905FA68
:1047B00002F22243C2600133102BCDD1BDE8F0815B
:1047C000038A19420CBF0020012070470183704703
:1047D000418370470AB101837047418370478182EA
:1047E000704701F00703C90800EB81009B000F210F
:1047F00099409A4010B5046A24EA01010162016AF5
:104800001143016210BD0000F0B585B004468688F2
:1048100068460D46314F00F01FF9029826F03F061A
:104820003604B0FBF7F7360C1FFA87FC4CEA060695
:10483000A68021882A6821F00101294B0904090C6E
:104840009A4221800DD85300B0FBF3F39BB20CF1D8
:10485000010C032B1FFA8CFC98BF0423A4F820C082
:1048600022E0E9884BF6FF73994205D102EB420240
:10487000B0FBF2F39BB206E019235343B0FBF3F312
:104880009BB243F48043C3F30B020AB943F0010324
:104890004FF4967257434FF47A7297FBF2F7013751
:1048A000BFB243F400432784A383238869899BB262
:1048B00043F0010323802388AA8823F4816323F033
:1048C00002031B040A431B0C13439BB223802A8957
:1048D000AB8913439BB2238105B0F0BD40420F006A
:1048E000A0860100038819B19BB243F0010303E0E5
:1048F00023F001031B041B0C03807047038819B1CC
:104900009BB243F4807303E023F480731B041B0CFD
:1049100003807047038819B19BB243F4007303E02E
:1049200023F400731B041B0C03807047038819B128
:104930009BB243F4806303E023F480631B041B0CED
:104940000380704712B141F0010101E001F0FE0166
:104950000182704701827047008AC0B27047B1F58A
:10496000006F038803D19BB243F4006303E023F498
:1049700000631B041B0C03807047828A008B92B279
:1049800021F07F4342EA00401840431A5842584100
:10499000704782B00023009301930B0F01900093A6
:1049A000009B21F07F4113B1019B143302E0019B76
:1049B000090C18330193019B1B6819420CBF00209E
:1049C000012002B070477047FEE7FEE7FEE7FEE712
:1049D0007047704770470000014B1860704700BF78
:1049E00020000E420A4B01291A6822F0030240EA15
:1049F00002001860074B1A6942F004021A6101D1E3
:104A000030BF00E020BF1A6922F004021A6170472B
:104A10000070004000ED00E0024B00221A70187098
:104A2000704700BF02380240014B1860704700BF5A
:104A300000004742024B00221A701870704700BFF6
:104A400035380240034B9A6822F003021043986005
:104A5000704700BF00380240214B10B59968214AC9
:104A600001F00C010C2918D8DFE801F0171717170F
:104A7000071717170717171709001B4B15E09C6836
:104A80009968C4F38344145D9B68174BC1F381514B
:104A900063430131B3FBF1F307E05B684FF400417E
:104AA000C3F34233013301FA03F30D4903608B680A
:104AB000C3F3031313445C7A0368E34043608C68D8
:104AC000C4F302241444647A23FA04F484608968E9
:104AD000C1F3C2210A44527AD340C36010BD00BF63
:104AE00000380240CA0200200024F40000F44032E2
:104AF000B2F5403F084B06D1196800F0C04021F0E4
:104B0000C04108431860596B21F440315963596B17
:104B10000A435A63704700BF00380240014B1860D7
:104B2000704700BFD8064742044BDA6909B1104309
:104B300001E022EA0000D861704700BF003802405F
:104B4000044B1A6A09B1104301E022EA000018621E
:104B5000704700BF00380240044B5A6A09B1104345
:104B600001E022EA00005862704700BF00380240AE
:104B7000044B1A6909B1104301E022EA00001861F0
:104B8000704700BF00380240044B5A6909B1104316
:104B900001E022EA00005861704700BF003802407F
:104BA000044B9A6909B1104301E022EA00009861C0
:104BB000704700BF003802404309012B054B00F04D
:104BC0001F000CBF1B685B6B23FA00F000F00100B4
:104BD000704700BF0038024007B500230193312021
:104BE000FFF7EAFF019B01330193019BB3F5A04F4F
:104BF00001D00028F3D03120FFF7DEFF003018BFCE
:104C0000012003B05DF804FB00230928DAB203F1A8
:104C1000010302D90A38C0B2F7E740EA0210C0B275
:104C20007047030903EB830300F00F0000EB430020
:104C3000C0B27047002382B001930D4BDA68520670
:104C400013D44FF0FF32DA60094BDA68019902F0B1
:104C50004002013101910199B1F5005F01D0002AB4
:104C6000F2D0D868C0F3801000E0012002B0704795
:104C700000280040024BDA6822F08002DA607047B8
:104C80000028004038B50F4CCA2363625323636287
:104C90000546FFF7CFFF88B1A36823F04003A36068
:104CA000A2682B681343A360AB68236123696A6819
:104CB00043EA02432361FFF7DDFF0120014BFF229E
:104CC0005A6238BD00280040002382B001930E4B89
:104CD000CA225A6253225A62DA6822F0A002DA60CB
:104CE000094BDA68019902F0200201310191019922
:104CF000B1F5004F01D0002AF2D0D868FF22C0F3EE
:104D000040105A6202B0704700280040244A2DE942
:104D1000F0410B780C464F788E78926820B912F0EB
:104D200040022AD1CA7028E012F0400200D1CA70B5
:104D30003F0247EA0343E5781E4346EA0545184C1F
:104D4000CA23636253236362FFF774FF80B105F0E7
:104D50007F3020F0FE402060FFF78CFFA3689B06A9
:104D600005D4FFF7B1FF003018BF012000E001209B
:104D70000B4BFF225A62BDE8F0811846FFF744FF53
:104D800080463846FFF740FF07463046FFF73CFFB6
:104D9000E57840EA054040EA084545EA0725CEE7C0
:104DA000002800400F4B70B51B680C46C3F305424A
:104DB000C3F3062603F07F0503F480031B0C0A707F
:104DC0004E708D70CB7058B91046FFF72AFF2070D7
:104DD0003046FFF726FF60702846FFF722FFA070DD
:104DE00070BD00BF002800402DE9F0410C464B7813
:104DF000CA788F780E78002834D1D90603D523F0ED
:104E000010030A3363701046FFF7FEFE8046607899
:104E1000FFF7FAFE04463846FFF7F6FE40EA463052
:104E200040EA084545EA0425124CCA23636253232D
:104E30006362FFF7FFFE80B125F07F4323F0C003DC
:104E40006360FFF717FFA3689B0605D4FFF73CFFDD
:104E5000003018BF012000E00120064BFF225A62FB
:104E6000BDE8F0811D0245EA02453D4345EA46356D
:104E7000DAE700BF002800400E4B70B55B680C46B7
:104E8000C3F30742C3F3042603F03F05C3F34233E1
:104E9000CA704E708D700B7058B91046FFF7C1FE86
:104EA000E0703046FFF7BDFE60702846FFF7B9FEA0
:104EB000A07070BD00280040074BCA225A625322DE
:104EC0005A629A6822F007029A609A681043FF2299
:104ED00098605A62704700BF00280040044BCA2205
:104EE0005A6253225A62FF2258615A62704700BFC9
:104EF00000280040002382B00193124BCA225A625C
:104F000053225A629A6820B142F480629A6001206A
:104F100012E022F480629A600A4BDA68019902F08A
:104F20000402013101910199B1F5005F01D0002A1D
:104F3000F2D0D868C0F38000024BFF225A6202B060
:104F4000704700BF002800400D4BCA225A6253220E
:104F50005A6220F0040200F0040029B199680A4363
:104F60009A601A6C104306E0996821EA02029A607E
:104F70001A6C22EA00001864014BFF225A62704743
:104F800000280040820C20FA02F20B4B30B51D6C59
:104F90009C6805F00405D96805EAD23200EA0403EA
:104FA000134306D08BB213EA10130CBF002001206C
:104FB00030BD184630BD00BF00280040054BC0F38F
:104FC0000F10DA6840F0800002F0800262EA00020E
:104FD000DA6070470028004008B5154B98420BD1A5
:104FE0004FF480500121FFF7CFFDBDE808404FF49A
:104FF00080500021FFF7C8BD0E4B984207D14FF4F7
:1050000080400121FFF7CCFD4FF4804009E00A4BBE
:1050100098420BD14FF400400121FFF7C1FD4FF43E
:1050200000400021BDE80840FFF7BABD08BD00BF41
:105030000030014000380040003C00400B8810B5B3
:105040004C88028823438C8802F441522343CC8845
:1050500023430C8923434C8923438C892343CC89E4
:10506000234313439BB20380838B23F400631B040D
:105070001B0C83830B8A038210BD002303804380B3
:105080008380C380038143818381C381072303829B
:105090007047038819B19BB243F0400303E023F04B
:1050A00040031B041B0C0380704701F003039B00AB
:1050B0000F229A40984001F0FC0101F1804101F576
:1050C000803110B58C6824EA02028A608A68024343
:1050D0008A6010BDB0F1804F08B505D101200146AE
:1050E000FFF75EFD012007E0284B984209D102201E
:1050F0000121FFF755FD02200021BDE80840FFF720
:105100004FBD234B984205D104200121FFF748FDF4
:105110000420F1E71F4B984205D108200121FFF739
:105120003FFD0820E8E71C4B984205D110200121E3
:10513000FFF736FD1020DFE7184B984205D12020FD
:105140000121FFF72DFD2020D6E7154B984205D110
:1051500004200121FFF718FD042010E0114B9842B4
:1051600005D108200121FFF70FFD082007E00E4BB5
:10517000984209D110200121FFF706FD10200021DF
:10518000BDE80840FFF700BD08BD00BF00040040B7
:1051900000080040000C00400010004000140040D7
:1051A00000080140000C0140001001400388B0F1EC
:1051B000804F9BB20AD0114A904207D002F580621C
:1051C000904203D002F58062904203D14A8823F0D6
:1051D000700313430A4A904208D002F5806290425D
:1051E00004D023F440730A899BB2134303804B68B5
:1051F000C3620B880385012383827047000400404B
:1052000000100040838823F070031B041B0C838074
:1052100083889BB2194381807047000008B5204BFA
:1052200098420BD14FF480400121FFF7ADFCBDE85F
:1052300008404FF480400021FFF7A6BC194B98426C
:1052400007D14FF400300121FFF7AAFC4FF40030E2
:105250001FE0154B984207D14FF480200121FFF742
:105260009FFC4FF4802014E0104B984207D14FF47C
:1052700000200121FFF794FC4FF4002009E00C4BC3
:1052800098420BD14FF480100121FFF789FC4FF4B5
:1052900080100021BDE80840FFF782BC08BD00BFB8
:1052A000003801400044004000480040004C0040ED
:1052B00000500040038ACA889BB223F4405330B5A3
:1052C00013430D4603820989AB8882890B436989A0
:1052D00092B20B4322F4B05222F00C029BB2134361
:1052E0008381838AAA899BB223F4407385B01343D8
:1052F000044683826846FFF7AFFB1749029A039B77
:105300008C4218BF1346A289192112B25943002AB0
:105310002A684FF06403B4BF52009200B1FBF2F16F
:10532000B1FBF3F21201100903FB1011A08900B2C6
:10533000002806DAC9003231B1FBF3F303F00703AA
:1053400005E009013231B1FBF3F303F00F031A4317
:1053500092B2228105B030BD00380140838919B175
:105360009BB243F4005303E023F400531B041B0CD3
:1053700083817047C1F30801818070478088C0F342
:1053800008007047838A9BB20AB1194301E023EAFF
:10539000010181827047C1F3421310B5012401F06D
:1053A0001F01A34204FA01F101D10C3003E0022BEA
:1053B0000CBF1030143003680AB1194301E023EA2E
:1053C0000101016010BD10B5C1F3421401F01F03CB
:1053D0000122012C02FA03F201D1838903E0022C9D
:1053E0000CBF038A838A9BB21340028892B243B1F6
:1053F0000123090A03FA01F111420CBF0020012028
:1054000010BD184610BD0000F8B504460E461746FC
:10541000002F41D0236853B1E2689B1801D2E360AA
:105420001AE04FF0FF33E3600023236014E062686A
:105430002C2A07D9531C0FD02D3A2D2A38BF002211
:10544000626009E0A5684DB3E268AA422DBFC5EBD2
:105450000205E360A360E5602069E56868B16369FF
:105460002D0C1844606103F50040001400F0FCFCB2
:1054700005FB000000F50040000C218B00B2FCF79A
:10548000A9FC094B013F1988FCF7A4FC01463046F2
:10549000FCF79AFC0236BBE70120F8BD2046FCF77A
:1054A00005F92846F8BD00BFF0140020024B1A8809
:1054B00018801046704700BFF01400200000000064
:1054C0002DE9F04180461C201D460E461746FCF78C
:1054D000A5F800230446002846D04361C0F8108098
:1054E000BEB1C3603046FBF737FD2349FBF78CFDA7
:1054F000FBF71EF902460B461DA1D1E90001FBF79F
:1055000095FA00221D4BFAF7B5FFFBF7FFFB206071
:1055100003E04FF0FF33C3600660676028469DB12B
:10552000FBF71AFD1449FBF76FFDFBF701F9024683
:105530000B460FA1D1E90001FBF778FA00220F4BCF
:10554000FAF798FFFBF7E2FBBDF81830A060238361
:105550000B482146FCF7EEFB0546204635B9FCF723
:10556000A5F82846BDE8F081BDE8F081BDE8F081EE
:105570000000000080842E430044AC460000E03F61
:1055800009540008AFF3008082B040B1EFF31083FC
:10559000019372B600234360019B83F3108802B02D
:1055A000704700001FB572B6FCF71EF801200146D7
:1055B000FFF7C6FA6FF00400FEF7E4FA4FF4A060BC
:1055C000FEF7A0FA1B48FEF7A7FA1B48FEF7A4FA5D
:1055D0001A48FEF7A1FA1A48FEF79EFA1948FEF794
:1055E0009BFA1948FEF798FA1848FEF795FA1848FA
:1055F000FEF792FA6846FFF72FFA019B4FF47A7292
:10560000B3FBF2F2013AB2F1807F09D2114BF021E3
:105610005A60114A82F8231000229A6007221A6009
:105620000E4B0F4A92E8030083E8030062B605B010
:105630005DF804FB187000081C700008207000085A
:1056400024700008287000082C70000830700008D2
:105650003470000810E000E000ED00E0F4140020D9
:1056600000700008054B82B09A6801929968019A0F
:105670008A1A8242FAD302B0704700BFF4140020A5
:10568000124B37B59A6801329A6072B6104A93E8A5
:1056900003008DE8030092E8030083E8030062B68C
:1056A0006846FEF7BBFA044668B123683BB1606800
:1056B000984720B121460548FEF795FAF0E72046C5
:1056C000FEF776FAECE703B030BD00BFF41400201B
:1056D00000700008014B80225A61704700040140AD
:1056E000024B4FF480725A61704700BF00040140C2
:1056F000024B4FF400725A61704700BF0004014032
:10570000024B4FF480625A61704700BF00040140B1
:10571000024B4FF400625A61704700BF0004014021
:10572000024B4FF480525A61704700BF00040140A1
:10573000024B4FF400525A61704700BF0004014011
:10574000024B4FF480425A61704700BF0004014091
:10575000024B4FF400425A61704700BF0004014001
:1057600010B50D4C63699B0601D5FEF7F7F8636928
:10577000580601D5FEF7F8F86369190601D5FFF759
:10578000A9FF6369DA0501D5FFF7AAFF63699B05E5
:1057900001D5FFF7ADFF10BD0004014010B5104C5E
:1057A00063695A0501D5FFF7ABFF63691B0501D596
:1057B000FFF7AEFF6369D80401D5FFF7B1FF636956
:1057C000990401D5FFF7B4FF63695A0401D5FFF7C7
:1057D000B7FF63691B0401D5FFF7BAFF10BD00BF17
:1057E00000040140384B82B01A6842F480721A609B
:1057F0009968364A0A409A601A6822F0885222F064
:1058000001121A601A6822F480221A609A6822F43F
:105810007D029A600022DA60009201921A6842F4D6
:1058200080321A60284B1A6802F400320192009A02
:1058300001320092019A1AB9009AB2F5A04FF1D143
:105840001B6813F4003318BF01230193019B012B44
:1058500005D01F4B4FF000629A6002B070471D4B9D
:105860004FF400611A68A3F5806322F00102C3F8C7
:105870000024D3F8002422F00202C3F80024D3F855
:10588000002422F00402C3F800245A6A42F0805235
:105890005A62114A11605168C906FCD49A689A602C
:1058A0009A689A609A689A609A6822F003029A60ED
:1058B0009A6842F002029A60034B9B6803F00C0363
:1058C000082BF9D1C5E700BF003802400CC0FF88A3
:1058D00000ED00E0003C02400070004007B51748B2
:1058E00040F22771FFF76FFD012812D172B61448FC
:1058F0000DF10701FCF7A1FB0246104822B19DF80B
:105900000710FFF737FD03E040F22771FFF743FD73
:1059100062B60A4840F22551FFF755FD01280AD129
:1059200072B60648FFF72AFD02A901F8010D0548E5
:10593000FCF7B3FB62B603B05DF804FB003801402E
:10594000001500208C15002037B51C4840F2277147
:10595000FFF739FD012812D172B619480DF1070180
:10596000FCF76BFB0246154822B19DF80710FFF7C4
:1059700001FD03E040F22771FFF70DFD62B6114C07
:1059800094F8F4501048FEF7A0FDC0F18000854265
:1059900011D094F8F4300D495A1CA1F14C0019446F
:1059A00084F8F420FCF779FB94F8F45005F07F05B7
:1059B00084F8F450E6E703B030BD00BF0048004073
:1059C000A815002000150020306002404416002079
:1059D000012070B501461F4CFFF7A6F81E4D0121AE
:1059E0004FF48040FFF7ACF81C4E2046FFF716FC42
:1059F00020462946FFF75EFC304609210722FEF7C4
:105A0000F0FE072230460A21FEF7EBFE3046144E28
:105A100005F11001FEF79CFE30468021FCF7E8FA04
:105A200006F18C001021FCF7E3FA04210022304635
:105A3000FCF7F3FA05F11800FEF76EF8204640F285
:105A400025510122FFF7A7FC20460121BDE8704047
:105A5000FFF784BC003801403870000800000240A5
:105A600000150020F0B502208DB0364C0121FFF763
:105A70005BF8354D01214FF48020FFF76DF8334E70
:105A80002046FFF7CBFB204605F11C01FFF712FC77
:105A900030460A210722FEF7A4FE072230460B21DA
:105AA000FEF79FFE30462A4E05F12C0106F1A807AD
:105AB000FEF74EFE38464021FCF79AFA06F1F80050
:105AC0004021FCF795FA042100223846FCF7A5FA9C
:105AD00005F13400FEF720F81E4D0122204640F269
