:020000040800F2
:1000000000C00020D513000853670008556700089A
:1000100057670008596700085B6700080000000088
:100020000000000000000000000000005D67000804
:100030005F67000800000000616700085174000855
:10004000211400082114000821140008A9510008F7
:100050002114000821140008F14A000821140008A6
:100060002114000821140008214B00082114000865
:10007000012B0008211400087D5A0008CD5A000801
:10008000211400082114000821140008211400087C
:1000900021140008211400082114000831750008FB
:1000A000211400082114000821140008211400085C
:1000B000211400082114000821140008A5390008A3
:1000C000ED3A00082114000821140008211400084A
:1000D0000D5A00083579000821140008A17900089C
:1000E0006D750008B15200082114000821140008A1
:1000F000211400082114000821140008211400080C
:100100002114000821140008714C00082114000873
:1001100021140008211400082114000821140008EB
:100120002114000800000000000000000000000092
:1001300000000000000000005FF808F1000000006F
:10014000844641EA000313F0030349D1403A23D324
:100150000B6803604B6843608B688360CB68C36047
:100160000B6903614B6943618B698361CB69C3612F
:100170000B6A03624B6A43628B6A8362CB6AC36217
:100180000B6B03634B6B43638B6B8363CB6BC363FF
:1001900040304031403ADBD230320BD30B68036041
:1001A0004B6843608B688360CB68C360103010314C
:1001B000103AF3D20C3205D351F8043B40F8043B1B
:1001C000043AF9D2043208D0D2071CBF11F8013B1F
:1001D00000F8013B01D30B8803806046704700BFE5
:1001E000082A13D38B07B1D010F00303AED0C3F1AC
:1001F0000403D21ADB071CBF11F8013B00F8013BD6
:10020000A4D331F8023B20F8023B9FE7043AD9D34C
:10021000013A11F8013B00F8013BF9D20B78037069
:100220004B7843708B7883706046704740EA010CCE
:100230001CF0070F27D1BDF1100DCDE90245CDE926
:1002400000676FF000064FF0000700BFF0E80223E0
:10025000F1E80245A242A2F1013C2CEA020C0CF0AA
:10026000803C08BFBCF1000F40F0E580AB42A3F139
:10027000013C2CEA030C0CF0803C08BFBCF1000FE1
:1002800040F0D680E2E710F0030C21D020F003000C
:1002900050F8042B5FEACC7C08D00FD211F801CBC8
:1002A0005FFA92F3B3EB0C0C10D17BB111F801CBD8
:1002B0005FFAA2F3B3EB0C0C08D13BB111F801CB00
:1002C0005FFAB2F3B3EB0C0C00D10BB96046704788
:1002D000BDF1100DCDE90245CDE900676FF00006D4
:1002E0004FF0000711F0030C33D110F0040F0FD0C2
:1002F00050F8042B51F8044BA242A2F1013C2CEA25
:10030000020C0CF0803C08BFBCF1000F40F0938061
:1003100011F0040F99D051F8045B00BFF0E80223FC
:10032000AA42A2F1013C2CEA020C0CF0803C08BF6E
:10033000BCF1000F79D1F1E80245A342A3F1013CE1
:100340002CEA030C0CF0803C08BFBCF1000F69D113
:10035000E4E721F00301BCF1020F20D03FDA51F8AD
:10036000045B00BF50F8043B4FEA1525A3F1013CA4
:100370002CEA030C0CF0803CB7EB0C2F03EA16229E
:1003800008BFAA4251D151F8045BBCF1000F82EAC8
:1003900003034FEA056208BF934240D1E2E751F8F8
:1003A000045B00BF50F8043B4FEA1545A3F1013C44
:1003B0002CEA030C0CF0803CB7EB0C4F03EA16421E
:1003C00008BFAA4231D151F8045BBCF1000F82EAA8
:1003D00003034FEA054208BF934220D1E2E751F8F8
:1003E000045B00BF50F8043B4FEA1565A3F1013CE4
:1003F0002CEA030C0CF0803CB7EB0C6F03EA16629E
:1004000008BFAA4211D151F8045BBCF1000F82EA87
:1004100003034FEA052208BF934200D1E2E719BA6D
:1004200012BA0AE019BA22BA07E011BA2ABA04E0ED
:1004300019BA2ABA01E011BA22BA9CFA8CF0DDE9A5
:100440000067DDE902451DF1100D38B1B0FA80F00A
:10045000C0F1180021FA00F122FA00F201209142C5
:1004600098BF8041704700BF81F0004102E000BFAB
:1004700083F0004330B54FEA41044FEA430594EA64
:10048000050F08BF90EA020F1FBF54EA000C55EA9F
:10049000020C7FEA645C7FEA655C00F0E2804FEA70
:1004A0005454D4EB5555B8BF6D420CDD2C4480EA52
:1004B000020281EA030382EA000083EA010180EA82
:1004C000020281EA0303362D88BF30BD11F0004FD0
:1004D0004FEA01314FF4801C4CEA113102D0404206
:1004E00061EB410113F0004F4FEA03334CEA133341
:1004F00002D0524263EB430394EA050F00F0A78059
:10050000A4F10104D5F1200E0DDB02FA0EFC22FA53
:1005100005F2801841F1000103FA0EF2801843FA47
:1005200005F359410EE0A5F120050EF1200E012A38
:1005300003FA0EFC28BF4CF0020C43FA05F3C01876
:1005400051EBE37101F0004507D54FF0000EDCF1EF
:10055000000C7EEB00006EEB0101B1F5801F1BD398
:10056000B1F5001F0CD349085FEA30004FEA3C0C9C
:1005700004F101044FEA445212F5800F80F09A8092
:10058000BCF1004F08BF5FEA500C50F1000041EB96
:10059000045141EA050130BD5FEA4C0C404141EB9A
:1005A000010111F4801FA4F10104E9D191F0000FC1
:1005B00004BF01460020B1FA81F308BF2033A3F144
:1005C0000B03B3F120020CDA0C3208DD02F1140C3B
:1005D000C2F10C0201FA0CF021FA02F10CE002F176
:1005E0001402D8BFC2F1200C01FA02F120FA0CFC6F
:1005F000DCBF41EA0C019040E41AA2BF01EB0451B8
:10060000294330BD6FEA04041F3C1CDA0C340EDCB5
:1006100004F11404C4F1200220FA04F001FA02F3F8
:1006200040EA030021FA04F345EA030130BDC4F1B6
:100630000C04C4F1200220FA02F001FA04F340EAAB
:100640000300294630BD21FA04F0294630BD94F05C
:10065000000F83F4801306BF81F480110134013D43
:100660004EE77FEA645C18BF7FEA655C29D094EAB4
:10067000050F08BF90EA020F05D054EA000C04BF32
:100680001946104630BD91EA030F1EBF002100201D
:1006900030BD5FEA545C05D14000494128BF41F0BC
:1006A000004130BD14F580043CBF01F5801130BD20
:1006B00001F0004545F0FE4141F470014FF00000AB
:1006C00030BD7FEA645C1ABF194610467FEA655C5C
:1006D0001CBF0B46024650EA013406BF52EA0335FE
:1006E00091EA030F41F4002130BD00BF90F0000FEC
:1006F00004BF0021704730B54FF4806404F1320428
:100700004FF000054FF0000150E700BF90F0000FE0
:1007100004BF0021704730B54FF4806404F1320407
:1007200010F0004548BF40424FF000013EE700BFD7
:1007300042004FEAE2014FEA31014FEA02701FBF67
:1007400012F07F4393F07F4F81F06051704792F039
:10075000000F14BF93F07F4F704730B54FF46074B3
:1007600001F0004521F0004120E700BF50EA0102FE
:1007700008BF704730B54FF000050AE050EA0102AB
:1007800008BF704730B511F0004502D5404261EB1B
:1007900041014FF4806404F132045FEA915C3FF45C
:1007A000DCAE4FF003025FEADC0C18BF03325FEAF5
:1007B000DC0C18BF033202EBDC02C2F1200300FAAA
:1007C00003FC20FA02F001FA03FE40EA0E0021FACF
:1007D00002F11444C1E600BF70B54FF0FF0C4CF4B9
:1007E000E06C1CEA11541DBF1CEA135594EA0C0F6F
:1007F00095EA0C0F00F0DEF82C4481EA030621EAAA
:100800004C5123EA4C5350EA013518BF52EA0335E4
:1008100041F4801143F4801338D0A0FB02CE4FF096
:100820000005E1FB02E506F00042E0FB03E54FF0C6
:100830000006E1FB03569CF0000F18BF4EF0010EBE
:10084000A4F1FF04B6F5007F64F5407404D25FEABA
:100850004E0E6D4146EB060642EAC62141EA55516D
:100860004FEAC52040EA5E504FEACE2EB4F1FD0CAF
:1008700088BFBCF5E06F1ED8BEF1004F08BF5FEA2D
:10088000500E50F1000041EB045170BD06F00046DF
:1008900046EA010140EA020081EA0301B4EB5C048C
:1008A000C2BFD4EB0C0541EA045170BD41F4801184
:1008B0004FF0000E013C00F3AB8014F1360FDEBFA9
:1008C000002001F0004170BDC4F10004203C35DA85
:1008D0000C341BDC04F11404C4F1200500FA05F308
:1008E00020FA04F001FA05F240EA020001F00042A9
:1008F00021F0004110EBD37021FA04F642EB06011F
:100900005EEA430E08BF20EAD37070BDC4F10C0448
:10091000C4F1200500FA04F320FA05F001FA04F20C
:1009200040EA020001F0004110EBD37041F10001F8
:100930005EEA430E08BF20EAD37070BDC4F1200503
:1009400000FA05F24EEA020E20FA04F301FA05F26B
:1009500043EA020321FA04F001F0004121FA04F213
:1009600020EA020000EBD3705EEA430E08BF20EAE3
:10097000D37070BD94F0000F0FD101F0004640001D
:1009800041EB010111F4801F08BF013CF7D041EA9F
:10099000060195F0000F18BF704703F000465200A3
:1009A00043EB030313F4801F08BF013DF7D043EA74
:1009B0000603704794EA0C0F0CEA135518BF95EA2A
:1009C0000C0F0CD050EA410618BF52EA4306D1D1B1
:1009D00081EA030101F000414FF0000070BD50EAD0
:1009E000410606BF1046194652EA430619D094EA5A
:1009F0000C0F02D150EA013613D195EA0C0F05D144
:100A000052EA03361CBF104619460AD181EA030197
:100A100001F0004141F0FE4141F470014FF000004F
:100A200070BD41F0FE4141F4780170BD70B54FF0EA
:100A3000FF0C4CF4E06C1CEA11541DBF1CEA13556A
:100A400094EA0C0F95EA0C0F00F0A7F8A4EB05044C
:100A500081EA030E52EA03354FEA013100F0888043
:100A60004FEA03334FF0805545EA131343EA12630C
:100A70004FEA022245EA111545EA10654FEA0026C1
:100A80000EF000419D4208BF964244F1FD0404F57A
:100A9000407402D25B084FEA3202B61A65EB0305D6
:100AA0005B084FEA32024FF480104FF4002CB6EB93
:100AB000020E75EB030E22BFB61A754640EA0C0013
:100AC0005B084FEA3202B6EB020E75EB030E22BF53
:100AD000B61A754640EA5C005B084FEA3202B6EB94
:100AE000020E75EB030E22BFB61A754640EA9C0053
:100AF0005B084FEA3202B6EB020E75EB030E22BF23
:100B0000B61A754640EADC0055EA060E18D04FEAE0
:100B1000051545EA16754FEA06164FEAC30343EA80
:100B200052734FEAC2025FEA1C1CC0D111F4801F4D
:100B30000BD141EA00014FF000004FF0004CB6E746
:100B400011F4801F04BF01430020B4F1FD0C88BFE5
:100B5000BCF5E06F3FF6AFAEB5EB030C04BFB6EBF0
:100B6000020C5FEA500C50F1000041EB045170BDE3
:100B70000EF0004E4EEA113114EB5C04C2BFD4EB10
:100B80000C0541EA045170BD41F480114FF0000E94
:100B9000013C90E645EA060E8DE60CEA135594EA10
:100BA0000C0F08BF95EA0C0F3FF43BAF94EA0C0F13
:100BB0000AD150EA01347FF434AF95EA0C0F7FF488
:100BC00025AF104619462CE795EA0C0F06D152EADC
:100BD00003353FF4FDAE1046194622E750EA4106C0
:100BE00018BF52EA43067FF4C5AE50EA41047FF4D1
:100BF0000DAF52EA43057FF4EBAE12E74FF0FF3C36
:100C000006E000BF4FF0010C02E000BF4FF0010C06
:100C10004DF804CD4FEA410C7FEA6C5C4FEA430C7F
:100C200018BF7FEA6C5C1BD001B050EA410C0CBFCE
:100C300052EA430C91EA030F02BF90EA020F002030
:100C4000704710F1000F91EA030F58BF994208BF97
:100C500090422CBFD8176FEAE37040F00100704754
:100C60004FEA410C7FEA6C5C02D150EA013C07D1AB
:100C70004FEA430C7FEA6C5CD6D152EA033CD3D0F6
:100C80005DF8040B704700BF8446104662468C46F0
:100C90001946634600E000BF01B5FFF7B7FF002823
:100CA00048BF10F1000F01BD4DF808EDFFF7F4FF4C
:100CB0000CBF012000205DF808FB00BF4DF808EDD7
:100CC000FFF7EAFF34BF012000205DF808FB00BFFA
:100CD0004DF808EDFFF7E0FF94BF012000205DF81C
:100CE00008FB00BF4DF808EDFFF7CEFF94BF0120D1
:100CF00000205DF808FB00BF4DF808EDFFF7C4FFCA
:100D000034BF012000205DF808FB00BF4A0011D26B
:100D100012F5001211D20DD56FF47873B3EB625255
:100D20000ED44FEAC12343F0004343EA505323FA61
:100D300002F070474FF00000704750EA013002D1D6
:100D40004FF0FF3070474FF0000070474FEA41020C
:100D5000B2F1E04324BFB3F5001CDCF1FE5C0DD919
:100D600001F0004C4FEAC0024CEA5070B2F1004F63
:100D700040EB830008BF20F00100704711F0804F66
:100D800021D113F13872BCBF01F00040704741F42B
:100D900080114FEA5252C2F11802C2F1200C10FA2F
:100DA0000CF320FA02F018BF40F001004FEAC12313
:100DB0004FEAD32303FA0CFC40EA0C0023FA02F3B7
:100DC0004FEA4303CCE77FEA625307D150EA01338D
:100DD0001EBF4FF0FE4040F44000704701F000405D
:100DE00040F0FE4040F40000704700BF80F000403B
:100DF00002E000BF81F0004142001FBF5FEA4103F3
:100E000092EA030F7FEA226C7FEA236C6AD04FEAF2
:100E10001262D2EB1363C1BFD21841404840414037
:100E2000B8BF5B42192B88BF704710F0004F40F4E9
:100E3000000020F07F4018BF404211F0004F41F405
:100E4000000121F07F4118BF494292EA030F3FD0D1
:100E5000A2F1010241FA03FC10EB0C00C3F12003E4
:100E600001FA03F100F0004302D5494260EB400073
:100E7000B0F5000F13D3B0F1807F06D340084FEADE
:100E8000310102F10102FE2A51D2B1F1004F40EBD3
:100E9000C25008BF20F0010040EA0300704749003B
:100EA00040EB000010F4000FA2F10102EDD1B0FA06
:100EB00080FCACF1080CB2EB0C0200FA0CF0AABFFB
:100EC00000EBC25052421843BCBFD0401843704799
:100ED00092F0000F81F4000106BF80F4000001329F
:100EE000013BB5E74FEA41037FEA226C18BF7FEA76
:100EF000236C21D092EA030F04D092F0000F08BFB8
:100F00000846704790EA010F1CBF0020704712F09E
:100F10007F4F04D1400028BF40F00040704712F1DD
:100F200000723CBF00F50000704700F0004343F042
:100F3000FE4040F4000070477FEA226216BF084678
:100F40007FEA23630146420206BF5FEA412390EA3B
:100F5000010F40F4800070474FF0000304E000BF31
:100F600010F0004348BF40425FEA000C08BF7047E2
:100F700043F0964301464FF000001CE050EA0102A6
:100F800008BF70474FF000030AE000BF50EA0102BB
:100F900008BF704711F0004302D5404261EB4101A8
:100FA0005FEA010C02BF84460146002043F0B643CD
:100FB00008BFA3F18053A3F50003BCFA8CF2083AF2
:100FC000A3EBC25310DB01FA02FC634400FA02FCFB
:100FD000C2F12002BCF1004F20FA02F243EB020002
:100FE00008BF20F00100704702F1200201FA02FC64
:100FF000C2F1200250EA4C0021FA02F243EB020057
:1010000008BF20EADC7070474FF0FF0C1CEAD0529A
:101010001EBF1CEAD15392EA0C0F93EA0C0F6FD05B
:101020001A4480EA010C400218BF5FEA41211ED039
:101030004FF0006343EA501043EA5111A0FB013125
:101040000CF00040B1F5000F3EBF490041EAD371FA
:101050005B0040EA010062F17F02FD2A1DD8B3F176
:10106000004F40EBC25008BF20F00100704790F0E5
:10107000000F0CF0004C08BF49024CEA502040EA37
:1010800051207F3AC2BFD2F1FF0340EAC2507047FD
:1010900040F400004FF00003013A5DDC12F1190F3B
:1010A000DCBF00F000407047C2F10002410021FAAD
:1010B00002F1C2F1200200FA02FC5FEA310040F1C5
:1010C000000053EA4C0308BF20EADC70704792F03E
:1010D000000F00F0004C02BF400010F4000F013A76
:1010E000F9D040EA0C0093F0000F01F0004C02BF71
:1010F000490011F4000F013BF9D041EA0C018FE7E0
:101100000CEAD15392EA0C0F18BF93EA0C0F0AD0E5
:1011100030F0004C18BF31F0004CD8D180EA01000B
:1011200000F00040704790F0000F17BF90F0004FA4
:10113000084691F0000F91F0004F14D092EA0C0F86
:1011400001D142020FD193EA0C0F03D14B0218BF19
:10115000084608D180EA010000F0004040F0FE405F
:1011600040F40000704740F0FE4040F440007047FB
:101170004FF0FF0C1CEAD0521EBF1CEAD15392EA7A
:101180000C0F93EA0C0F69D0A2EB030280EA010C6A
:1011900049024FEA402037D04FF0805343EA111103
:1011A00043EA10130CF000408B4238BF5B0042F161
:1011B0007D024FF4000C8B4224BF5B1A40EA0C0006
:1011C000B3EB510F24BFA3EB510340EA5C00B3EB38
:1011D000910F24BFA3EB910340EA9C00B3EBD10F26
:1011E00024BFA3EBD10340EADC001B0118BF5FEA78
:1011F0001C1CE0D1FD2A3FF650AF8B4240EBC250A1
:1012000008BF20F0010070470CF0004C4CEA502061
:101210007F32C2BFD2F1FF0340EAC250704740F4B0
:1012200000004FF00003013A37E792F0000F00F0A2
:10123000004C02BF400010F4000F013AF9D040EA20
:101240000C0093F0000F01F0004C02BF490011F4B4
:10125000000F013BF9D041EA0C0195E70CEAD153AC
:1012600092EA0C0F08D142027FF47DAF93EA0C0F93
:101270007FF470AF084676E793EA0C0F04D14B0277
:101280003FF44CAF08466EE730F0004C18BF31F029
:10129000004CCAD130F000427FF45CAF31F0004323
:1012A0007FF43CAF5FE700BF4FF0FF3C06E000BFBC
:1012B0004FF0010C02E000BF4FF0010C4DF804CDDF
:1012C0004FEA40024FEA41037FEA226C18BF7FEAEF
:1012D000236C11D001B052EA530C18BF90EA010FF1
:1012E00058BFB2EB030088BFC81738BF6FEAE17080
:1012F00018BF40F0010070477FEA226C02D15FEA1C
:10130000402C05D17FEA236CE4D15FEA412CE1D087
:101310005DF8040B704700BF844608466146FFE74E
:101320000FB5FFF7C9FF002848BF10F1000F0FBD30
:101330004DF808EDFFF7F4FF0CBF012000205DF829
:1013400008FB00BF4DF808EDFFF7EAFF34BF0120AE
:1013500000205DF808FB00BF4DF808EDFFF7E0FF47
:1013600094BF012000205DF808FB00BF4DF808ED98
:10137000FFF7D2FF94BF012000205DF808FB00BFFB
:101380004DF808EDFFF7C8FF34BF012000205DF8DD
:1013900008FB00BF42000ED2B2F1FE4F0BD34FF05C
:1013A0009E03B3EB126209D44FEA002343F00043DB
:1013B00023FA02F070474FF00000704712F1610FFE
:1013C00001D1420202D14FF0FF3070474FF00000D0
:1013D000704700BF002100F004B80C4B5B5843502D
:1013E00004310B480B4B42189A42FFF4F6AF0A4AFD
:1013F00000F003B8002342F8043B084B9A42FFF484
:10140000F9AF06F0D7F802F0FBFD70473C07010882
:10141000000000205C0700205C07002078270020E7
:10142000FFF7FEBF10B5012088B005F0C9F92120F3
:1014300005F08EFA0028FAD0174804F00FFD0121BC
:101440004FF4007005F048FA4FF4803308A840F8D4
:101450001C3D04F049FD02A804F03AFD01240023DC
:101460000D4802A902938DF80C308DF80D300493CD
:1014700006938DF81C4004F005FD0748214604F052
:101480003DFD0548402104F0E0FD0028F9D0012091
:1014900004F03EFD08B010BD0024014008B501462F
:1014A00001220948062304F03FFD074804F0C5FD6A
:1014B0000548022104F0C9FD0028F9D0024804F0D3
:1014C000C1FD00B208BD00BF0024014082B0EFF3AF
:1014D0001083019372B6074A0749002313705370B3
:1014E0009370D3705160054A1360019B83F3108899
:1014F00002B0704778270020004000005C07002001
:10150000031D072B88BFC31D37B51D498CBF23F0B2
:10151000030308238B4230D8EFF31082019272B696
:10152000184A03F108005268824294BF0A461648DE
:10153000144998BF00200C6844B165689D4203D3EC
:1015400095429CBF2A4608462146F4E788B10168C7
:101550004D68EA1A082A04D80B68224603602B4615
:1015600000E04A6088188B50084A043011680B4428
:101570001360019B83F3108800E0002003B030BDAE
:101580000040000078270020B48300085C0700209A
:10159000194B73B598422DD9184A90422AD2021F8E
:1015A00050F8044CEFF31081019172B6196819B12B
:1015B0008A4201D90B46F9E75D685E19B24205D946
:1015C000046040F8041C1A60134601E025445D6085
:1015D0001A6842B159685818824204D85068126893
:1015E000014459601A60064B1A68141B1C60019B69
:1015F00083F3108802B070BD782700207867002040
:101600005C0700202DE9F041304C314DA6782B7855
:10161000012E11D0012B06D04FF0010885F8008073
:1016200003F008F901E04FF00008A378022B0CBF8B
:10163000002301236B700AE043B100232B7003F0F9
:1016400011F9244BB0461B682B6100E09846224AF2
:1016500094F82C301178214E994218BF13702388CA
:101660001F4F538094F8383096461371236B18BF80
:101670004FF001081364636B13650FCF0FC657F863
:10168000043B46F8043B0FCF0FC63B683360E38D45
:10169000AEF80630638FAEF81630B4F84400FFF7AA
:1016A0005BFC0146FFF7B0FCB4F846306860AB81E4
:1016B000B4F84800FFF750FC0146FFF7A5FCB4F86A
:1016C0004A30A860EB814046BDE8F081C818002090
:1016D00060070020C024002030240020482400207F
:1016E000CC180020014B587E704700BF60070020D7
:1016F00038B50D4C237E032B18BF002309D1206A77
:10170000656A05F09FFE2844606205F095FE01239E
:1017100020626376606AFFF71FFC0449FFF728FD2B
:101720000023636238BD00BF600700200000C8428C
:10173000074B4FF47A721868064B5B69C01A064B68
:10174000DB8A5343984234BF00200120704700BF1A
:10175000C0240020600700203024002038B5FFF7A7
:1017600051FF0A4B0A4C588805F072FD2378094D49
:101770001BB903F077F82B6823612B680020012147
:10178000636104F0A1FC0123237638BD30240020DE
:1017900060070020C024002038B50C4C237E023B9B
:1017A000012B01D803F05AFF23780BB903F042F85C
:1017B00007484FF4007104F0C3FE05460028F7D136
:1017C000014604F081FC257638BD00BF600700208B
:1017D000000C024070B53A4C237E013B032B6DD8C0
:1017E000DFE803F00226365BFFF70CFF2378344D69
:1017F0002BB1012B62D16B78002B5FD10FE003F08E
:10180000E3F86968FFF7BCFD2E4E58B103F0FAFE0D
:1018100040B932682B69D31AAA8993424ED9022360
:101820002B7670BD284B00221A753368236170BD7A
:10183000637E0133637605F0FFFD206203F0E8FE6E
:1018400023781BB91F4B1A681D4B5A61032334E0E0
:1018500003F0EEFE23781A4D2BB1012B18D16B78D3
:10186000012B15D10FE003F0AFF8A968FFF76AFD6F
:10187000144E58B103F0C6FE40B932686B69D31AF2
:10188000EA89934204D904232B7601E0336863612B
:10189000FFF7B8FE90B104230FE003F0DFFE206AEB
:1018A00005F0D0FD636AE0611844237860621BB9DB
:1018B000044B1A68024B1A610123237670BD00BFE6
:1018C00060070020C0240020302400200278024B52
:1018D0001A7006225A7070479007002000200146B7
:1018E00000F00ABE08B503F057FA034B08B90A2204
:1018F00000E003225A7008BD9007002070B56A4EC0
:101900008AB0012300220446B37005920292039329
:1019100002F040F9B4F80150029A2A2D039B70D0CE
:1019200037D8182D61D012D80F2D58D007D8082DD0
:1019300052D00C2D40F0B58021785C4BACE0122DDC
:1019400050D0152D40F0AD802178594B61E0212D0C
:1019500051D009D81B2D4BD01E2D40F0A280554BE5
:1019600021780093284650E0242D47D0272D40F0C1
:101970009880514D10462946029205F0DFF8029AF0
:10198000291D104605F044F9217800951E20029A81
:101990003BE03D2D54D011D8332D4CD009D82D2DFE
:1019A00035D0302D7DD1454B217800931E200C235E
:1019B00075E0372D31D03A2D3DD072E0492D64D0FD
:1019C00003D8412D5CD0452D04E0512D5DD0542D20
:1019D00060D04D2D59D064E0217839482DE0217830
:1019E00038482AE02178384B13E02178374824E042
:1019F0002178374B50E0217836481EE02178364B6D
:101A00004AE0364B217800931E20082347E02178D6
:101A1000334B00931E20142341E0029202F0BAF8E7
:101A20000AAB43F8140D009321781E20029A042378
:101A300000F062FD21E021782A4800901E202EE06F
:101A4000F378C0F30F100133DBB28342F370264DFD
:101A500002D310232B70F27006AE304602F012F95A
:101A60002B78217800961E20002200F045FD2B786F
:101A7000102B16D11C4B16221A7002F0A7F810E09A
:101A8000217800921E20072309E0217800921E2071
:101A9000134604E02178154B00931E20022300F02A
:101AA0002BFD0AB070BD00BF90070020C8180020B1
:101AB000E0180020F8180020041900202819002040
:101AC00009030020CA180020CC180020F4180020B8
:101AD000F618002000190020021900200C1900201F
:101AE00014190020341900200000002008000020F4
:101AF00070B5894A0125957043880446212B00F072
:101B00008D8018D8122B4ED00AD80C2B35D00F2B25
:101B100041D0082B40F0F580804800F095FEF0E0C1
:101B2000182B64D002D8152B4ED0EAE01B2B67D0BF
:101B30001E2B6DD0E5E02D2B00F0A98009D8272BB6
:101B400000F092802A2B00F08580242B40F0D98071
:101B50006CE0332B00F0C38003D8302B00F0B3804F
:101B6000CFE03A2B00F0C280542B40F0CA80E11D38
:101B7000A2796B48FEF7E4FAC3E08379022B40F0C8
:101B8000C080684DB0F807302B80288805F060FBD6
:101B900065482988A7E08379012B40F0B280C2799B
:101BA000604B9A70ADE08379142B40F0AA805F4AB5
:101BB000C31D00F1170618685968154603C5083398
:101BC000B3422A46F7D10FE08379142B40F0998075
:101BD000574AC31D00F1170618685968154603C512
:101BE0000833B3422A46F7D11868106089E0837938
:101BF000012B40F08680C2794A4B83F82C2080E08C
:101C00008379022B7DD1B0F807204A4B1A8078E007
:101C10008379082B75D10246474B20E08379012B4D
:101C20006FD1C2793F4B83F838206AE08379022B69
:101C300067D1B0F80710414B23F83A195B8F4FF486
:101C40007A714B4343F697218B42C8BF43F69823E2
:101C5000536056E08379082B53D1394B024652F832
:101C6000070F516803C34CE08379082B49D1034621
:101C700053F8070F334D596803C50020A5F108013B
:101C800004F010FF291F002004F07AFF39E0837967
:101C9000142B36D12C4AC31D00F117061868596859
:101CA000154603C50833B3422A46F7D118682749B9
:101CB00028602548FEF7BAFA10B900F03DFF20E091
:101CC00000F0BCFF1DE083790C2B1AD1024652F8BC
:101CD000070F1F4B516803C39068186011E0114B48
:101CE0001C4893F86C1000F0AFFD0AE0C379EF2BAD
:101CF00007D103F051F820B102F0D2F8284601F0E4
:101D00004FFF6378022B06D121781F200022BDE807
:101D1000704000F0F1BB70BD900700203002010858
:101D200008000020C818002041020108CC1800203B
:101D3000E0180020F6180020F818002002190020F2
:101D40000C19002004190020141900204C0201086D
:101D50002819002053020108B0F80120034B0AB9EA
:101D60000A2200E004225A70704700BF900700204A
:101D7000014B00229A70704790070020014B00220F
:101D80009A707047900700200288034B0AB902221C
:101D900000E001225A70704790070020094B1A7A20
:101DA000D2B2032A02D0052A07D07047018839B978
:101DB000054A1268DA60052202E0018801B90A22A8
:101DC0005A70704790070020C0240020034B1A7AF5
:101DD000022A0CBF032202225A707047900700208B
:101DE00090F90110014800F02FBD00BF5D0201080D
:101DF00070B5364D2B7C032B65D8DFE803F002105D
:101E00005933324C04F1110005F07CFD00285AD002
:101E10002F4B1B68A3610123E361237453E02B4C18
:101E2000EB6904F11100184405F06CFD78B1E36929
:101E30000133042B01D0E36109E0A37C0020E061C1
:101E400013B10323237470BD022222743BE0204BA4
:101E50001A68AB69D31A642B35D91C4B00221A744B
:101E6000012070BD194CE86904F12006304405F0EA
:101E700049FD90B1E369A27C01339342E3610CD147
:101E80000025D4F81100257400F010FB10B94FF0B4
:101E9000FF3070BD8368304614E00D4B1A68AB69A3
:101EA000D31A642B0FD9094B00221A74022070BD7B
:101EB0000023D5F811002B7400F0F8FA0028E6D0C2
:101EC000836804489847002070BD00BF9007002039
:101ED000C0240020B0070020014B5870704700BF9D
:101EE00090070020014B5878704700BF90070020F2
:101EF000044B05481A68054B4FF48041DA6004F042
:101F00002BBB00BFC024002000040240900700202B
:101F100008B54FF48041034804F018FB003018BFA7
:101F2000012008BD0004024002484FF4804104F043
:101F300015BB00BF0004024041281AD004DC082869
:101F40000DD0272810D07047492817D04D281AD017
:101F500045281CD10E4B012283F8232170470C4BDE
:101F6000012283F820217047094B012283F82121A7
:101F70007047074B012283F822217047044B01224E
:101F800083F824217047024B012283F825217047F2
:101F90009007002041281AD004DC08280DD02728FB
:101FA00010D07047492817D04D281AD045281CD189
:101FB0000E4B002283F8232170470C4B002283F83C
:101FC00020217047094B002283F821217047074BDD
:101FD000002283F822217047044B002283F8242139
:101FE0007047024B002283F825217047900700209C
:101FF000412816D007DC08280FD027281DD1104B08
:1020000093F82101704749280FD04D2811D0452859
:1020100013D10B4B93F823017047094B93F8200120
:102020007047074B93F822017047054B93F8240142
:102030007047034B93F8250170470020704700BF9D
:102040009007002038B5414C6378013B0A2B6ED8CD
:10205000DFE803F0061C25502E436D6D5E566800C8
:102060003B4B4FF47A725B8F4420534343F69722E5
:102070009342C8BF43F6982363604FF4A0710723CF
:102080004FF4F07200F038FA012304E03620012109
:1020900000F032FA022323720C23637047E002211E
:1020A0003D200A4600F028FA03F076FB0323F2E70E
:1020B000284B264D1A68E368D31A6268934236D3D8
:1020C00002F06AFE014690BB3D200A4600F014FA79
:1020D00005232B720C236B7029E002F057FE0228B7
:1020E00025D102F059FE10BBA37803BB174B042285
:1020F0005A701CE02020217800F0FEF90423CAE782
:10210000FFF706FF08B90923C7E7FFF70DFF0EE049
:1021100002F042FE104B08B91A7842B100221A7040
:102120000B23BAE7FFF7F4FE08B9FFF7E1FEFFF76C
:102130005FFE012803D0022801D0013005D1BDE89F
:1021400038400020014600F0D7B938BD9007002084
:10215000C8180020C02400201C1A002030B5224BD3
:10216000224C93F8222187B02189002A3AD00022FC
:1021700083F8232183F8242183F825211C4B1B6835
:10218000B3FBF1F501FB153565BB02A802F01AFBA4
:10219000BDF808301B208DF8103043F307238DF86D
:1021A0001130BDF80A3041218DF8123043F3072376
:1021B0008DF81330BDF80C3000228DF8143043F345
:1021C00007238DF81530A378FF2B8DF816301CBF30
:1021D0000133A37004AB00934FF0070308BFA57051
:1021E00000F08AF907B030BD900700200000002001
:1021F000C024002030B5224B224C93F8232187B015
:102200002189002A3AD0002283F8222183F8242150
:1022100083F825211C4B1B68B3FBF1F501FB153539
:1022200065BB02A802F0F2FABDF808301B208DF859
:10223000103043F307238DF81130BDF80A304521E3
:102240008DF8123043F307238DF81330BDF80C30AE
:1022500000228DF8143043F307238DF81530E3780E
:10226000FF2B8DF816301CBF0133E37004AB0093D5
:102270004FF0070308BFE57000F03EF907B030BD2E
:102280009007002000000020C024002030B5224B21
:10229000224C93F8242187B02189002A3AD00022C9
:1022A00083F8222183F8232183F825211C4B1B6806
:1022B000B3FBF1F501FB153565BB02A802F096FAF8
:1022C000BDF808301B208DF8103043F307238DF83C
:1022D0001130BDF80A3049218DF8123043F307233D
:1022E0008DF81330BDF80C3000228DF8143043F314
:1022F00007238DF815302379FF2B8DF816301CBF7E
:102300000133237104AB00934FF0070308BF25711D
:1023100000F0F2F807B030BD900700200000002068
:10232000C024002030B5404B404C93F825218FB09D
:102330002189002A75D0002283F8222183F82321E5
:1023400083F824213A4B1B68B3FBF1F501FB1535EB
:10235000002D66D103A802F035FA05A802F056FA5E
:1023600007A802F043FABDF80C301B208DF824308A
:1023700043F307238DF82530BDF80E304D218DF83D
:10238000263043F307238DF82730BDF810300022A4
:102390008DF8283043F307238DF82930BDF8143029
:1023A0008DF82A3043F307238DF82B30BDF8163013
:1023B0008DF82C3043F307238DF82D30BDF81830FD
:1023C0008DF82E3043F307238DF82F30BDF81C30E5
:1023D0008DF8303043F307238DF83130BDF81E30CF
:1023E0008DF8323043F307238DF83330BDF82030B9
:1023F0008DF8343043F307238DF835306379FF2BA4
:102400008DF836301CBF0133637109AB00934FF078
:10241000130308BF657100F06FF80648617900F09A
:1024200013FA0FB030BD00BF90070020000000205D
:10243000C02400206A02010870B505460E4600243B
:10244000AC4206DA305D05F02BFA0028FAD00134F0
:10245000F6E7002070BD2DE9E7410F46984602A936
:10246000831801F8013D054601201646FFF7E4FFF9
:1024700039462846FFF7E0FF30464146FFF7DCFFCC
:1024800003B0BDE8E081000008B505F05BF9044841
:102490004FF4005104F060F8024A034B1A6008BD83
:1024A0000008024057240008B808002082B0010646
:1024B0000190C0F307434FEA10620AD5092B15D8E3
:1024C0000C4901EBC300007990420FD951F8333029
:1024D00009E0092B0AD8074901EBC30393F854100C
:1024E000914203D91B6D53F8220000E0002002B096
:1024F000704700BF400000200FB4F0B587B00CA8B3
:1025000010F8047B0C237B43444C0090E218E35802
:1025100055680022019302A91346A446002D6CD0F1
:1025200005F00F04023C092C65D8DFE804F01D1DFE
:10253000141405052121364C04680431260A01F8DB
:10254000044C01F8036C260C240E01F8026C01F80F
:10255000014C04304FE006680C4604F8026BC6F3E9
:1025600007264E70043045E0046804300C7012E019
:10257000044654F8083B0B709AB29DF805309DF85C
:10258000046013449BB28DF8053046EA13238DF89E
:1025900004304368204601312DE004680631267876
:1025A000043001F8066C667801F8056CA67801F82D
:1025B000046CE67801F8036C267901F8026C647902
:1025C00001F8014C17E0064656F8083B0C469AB253
:1025D00004F8023B130A4B709DF805309DF8041077
:1025E00013449BB28DF8053041EA13238DF8043073
:1025F0004368304621462D0990E709490D683DB1F1
:102600000C2404FB07C7787801A90430C0B2A8479E
:1026100007B0BDE8F04004B0704700BFBC830008BD
:10262000B808002070477047704770477047704780
:1026300070477047704770477047704770477047E2
:1026400070477047704770477047704770477047D2
:1026500070477047704770477047704770477047C2
:1026600070477047704770477047704770477047B2
:1026700070477047704770477047704770477047A2
:102680007047704770477047704770477047704792
:102690007047704770477047704770477047704782
:1026A0007047704770477047704770477047704772
:1026B0007047704770477047704770477047704762
:1026C0007047704770477047704770477047704752
:1026D0007047704770477047704770477047704742
:1026E000704770477047000008B5044800F0ACF828
:1026F000BDE808400120FFF7EFBB00BF4C03010815
:1027000070477047704770477047704710B5018831
:1027100004460A460A4800F097F8A378012B03D034
:1027200007D3032B0AD904E02088BDE81040FFF747
:1027300003BC2088BDE81040FFF72CBC10BD00BFD3
:1027400065030108704770477047704770477047CE
:1027500070477047704770477047704770477047C1
:10276000704770477047000008B506484FF4804135
:1027700003F0ECFE08B1032000E00B20BDE80840A8
:10278000FFF7AABB000402407047704770477047CC
:1027900008B504F0D7FD00F067F800F0DFFE00F0A8
:1027A00051F800F0E1F8FFF76FFEFEF73BFE03F093
:1027B000EFF901F06DF801F0C3FE01F04DFF02F0FA
:1027C00077FCBDE8084000F085BF000008B5012097
:1027D00003F0F6FF212004F0BBF80028FAD0012016
:1027E00003F0E6FF04F0C4F8012802D1022003F050
:1027F000F5FF094B09481A6840F2255142F00202E0
:102800001A60012204F093FCBDE80840044840F23D
:102810002551012204F08BBC10E000E0004800408C
:10282000003801400A2810B5044604D10D2005F0F7
:1028300005F80028FAD0204605F000F80028FAD064
:10284000204610BD04F032BF0FB407B504AA52F8F9
:10285000041B0448019205F019FA03B05DF804EB7B
:1028600004B070472528000808B54FF480500121B6
:1028700004F04AF84FF48050002104F045F84FF47A
:102880008050012104F01CF8BDE8084003F0E4BBCF
:10289000F0B5002385B007464FF08022FA5004338C
:1028A000B3F5006FF8D12B4D284602F0F7FB2C460C
:1028B000002831D1EFF31083019372B6264B02AE9C
:1028C00095E8030086E8030093E80300019B85E890
:1028D000030083F31088304602F0C3FB054680B145
:1028E0002B6853B1686839464FF48062984720B12D
:1028F0002946184802F09AFBEDE7284602F060FBF3
:10290000E9E7237A1BB9134B01221A7220E0134B1B
:102910004FF400721A601BE02B7A13B100232B7264
:1029200016E00E4B4FF000721A6003F5A843043313
:102930001A6822F001021A60094B1A6822F48052C8
:102940001A60084A138823F001031B041B0C138030
:1029500005B0F0BDBC08002094F00008180C02403F
:10296000007400400010004010B52D4888B00121CF
:1029700003F0A6FF2B48012103F0BAFF2A482B4998
:1029800003F0A6FD2A492B4803F0A2FD2A4B4FF085
:1029900000721A6003F074FB284804F067FA2848B4
:1029A00003F0B2FB0020274903F078FB04204FF42A
:1029B000004103F099FB0121002003F085FB04A8EE
:1029C00003F016FF069B45F2226203F52C531133E8
:1029D000B3FBF2F30024194801A90293ADF80C40AF
:1029E000ADF80640ADF8044004F0ACFA13482021DD
:1029F00004F0D4FA1248144903F0FEFB10480621F3
:102A0000012203F025FC114802F06CF9104B4FF045
:102A10008022E2500434B4F5805FF7D108B010BDD5
:102A2000090000011000002000000240148F00087F
:102A30001C8F0008000C0240180C024000100040DF
:102A40001C600240248F0008348F0008608F00084B
:102A5000C808002073B50E46054608B9002039E0C5
:102A6000082002F0A3FA04460028F7D080E86000AE
:102A7000EFF31083019372B6174D2146284602F0FA
:102A8000D5FA0646F8B1297AC1B9144B05F10C0202
:102A9000DA604FF400625A60114A5162196841F0DD
:102AA000010119600F4B196841F4805119601388B6
:102AB0009BB243F00103138001232B72019B83F32C
:102AC0001088012006E0019B83F31088204602F065
:102AD00077FA304602B070BDBC0800201C6002408E
:102AE00000100040007400400388194481F3100373
:102AF0000380704701FB000000F5004000147047A0
:102B000008B5402003F0ACFB28B1402003F0B6FB31
:102B10000748FFF7BDFE202003F0A2FB38B12020BC
:102B200003F0ACFBBDE808400248FFF7B1BE08BDAA
:102B3000C8080020C810002070B5364C4FF4487308
:102B400023806423E385344B344963604FF6FF737D
:102B50006361A3626363142363870323304A84F8A9
:102B600040300E234FF47A7084F8433085230025DB
:102B70000126A0602161A261E06161622263A4F884
:102B8000463041F25452A4F84A30264940F6AA236E
:102B900004F14C00A4F84420A4F84830E560256214
:102BA000A67084F82C6084F8385084F83F5084F87C
:102BB0003C5084F83D5084F83E5084F8426084F8DC
:102BC000416005F069FB184B1A6894F858301344BB
:102BD00084F85830154B1A6894F85A30134484F826
:102BE0005A30134B1B682366124B1B686366124BEB
:102BF0001B6884F86C60A36603F02EFA20461A2145
:102C000003F030FA2A46206774212046BDE8704060
:102C100000F05BB8C81800206C68A7078038010076
:102C200045241A09830301082CF0000828F0000845
:102C3000D000F81FD400F81FE400F81F10B5074CAF
:102C400003F00AFA20461A2103F00CFA74212067D7
:102C500000222046BDE8104000F037B8C818002018
:102C600010B50D4C74210022204600F01DF803F031
:102C7000F3F920461A2103F0F5F9236F984201D0A9
:102C8000FFF75AFF0549002003F00CFFBDE8104094
:102C90000020034903F074BFC81800200419002065
:102CA00008190020FFF7CABF08B50B46C1F5C0518F
:102CB0008A4208D202F1006101F500211A46FDF7AF
:102CC0003FFA002008BD012008BDC1F5C0539A425B
:102CD0002DE9F74307468846154640D2EFF31083A7
:102CE000019372B603F01AFB4FEA98092E460024AE
:102CF0004C450AD07B1B06F10060995900F5002075
:102D000003F076FB04360134F2E708F00308A30071
:102D1000B8F1020F07EB03061D4402D0A8442C466D
:102D20000AE005F1006037F8241000F5002003F0F8
:102D30004EFB03F003FB10E0444509D0731B04F184
:102D40000060195D00F5002003F030FB0134F3E76B
:102D500003F0F4FA019B83F31088002000E00120C7
:102D600003B0BDE8F083006882B00190019802B022
:102D7000704737B505460C46EFF31083019372B6E2
:102D800003F0CCFA2146284603F032FB03F0D6FAD2
:102D9000019B83F3108803B030BD038882B0ADF887
:102DA0000630BDF8060002B0704737B505460C4640
:102DB000EFF31083019372B603F0B0FAA1B2284684
:102DC00003F005FB03F0BAFA019B83F3108803B00C
:102DD00030BD82B0EFF31083019372B600239942A5
:102DE000C38003810CBF0323012303808180019BE7
:102DF00083F3108802B070470088704782B00346A2
:102E0000EFF31080019072B6188820EA0202114395
:102E10001980019B83F3108802B0704782B0EFF3F2
:102E20001083019372B60378DA071ED419B1C388F0
:102E300003441B7B0B70C388828801339BB29A4288
:102E4000C3809CBF0023C380C28803899A4203D1F8
:102E5000037843F00103037003786FF341030370B9
:102E6000019B83F31088012006E043F00403037004
:102E7000019B83F31088002002B0704782B059B3E1
:102E8000EFF31083019372B60378C3F34002DAB90B
:102E900003890978034419730389818801339BB23C
:102EA0009942038198BF02810389C2889A4203D163
:102EB000037843F00203037003786FF30003037099
:102EC000019B83F3108807E043F008030370019B24
:102ED00083F31088002000E0012002B0704700005A
:102EE0002DE9F04FB84B8246D3F80890D3F80C8008
:102EF000D3F810C0586985B0C3F80090C3F80480B7
:102F0000C3F808C0D8609F6997FAA7F71F61DE6908
:102F100096FAA6F61D6A5C6A996ADA6A5E619D6134
:102F2000DC6119625A620192DAF80020C9F3074B9A
:102F30009A620292DAF804204FEA196ADA62A34B25
:102F40000AF5807A53F82AA053F82BB00392D344A1
:102F50005FFA89FA0AF5007A53F82AA0C9F307291B
:102F600009F54079DA4453F829B0C8F3074909F55F
:102F7000806953F82990DA44CA444FEA186909F580
:102F8000A06953F82990019ACA445FFA88F909F5B3
:102F9000C06953F82990C8F3072808F5E068D144C0
:102FA00053F828A0CCF3074808F5006853F82880A8
:102FB000D144C1444FEA1C6808F5106853F82880D2
:102FC000C1445FFA8CF808F5206853F82880CCF3E8
:102FD000072C0CF5306CC14453F82C8009EB080C1D
:102FE000C0F3074808F5406853F82880C4444FEA06
:102FF000106808F5506853F82880C4445FFA80F8D8
:1030000008F56068C0F3072053F8288000F5706069
:1030100053F82000C4448444C7F3074000F58050AF
:1030200053F820008444380E00F5885053F82000EF
:103030008444F8B200F59050C7F3072753F82000F6
:1030400007F5985753F8277060443844C6F307478C
:1030500007F5A05753F827703844370E07F5A857DF
:1030600053F827703844F7B207F5B057C6F3072670
:1030700053F8277006F5B85653F8266038443044A4
:10308000C5F3072606F5B85653F826603044EEB26D
:1030900006F5B05653F8266030442E0E06F5A856B5
:1030A000C5F3074553F8266005F5A05553F825509C
:1030B00030442844C4F3072505F5985553F82550A6
:1030C0002844E5B205F5905553F825502844250EBF
:1030D00005F58855C4F3074453F8255004F580548A
:1030E00053F8244028442044C1F3072404F57064B5
:1030F00053F824402044CCB204F5606453F82440D3
:1031000020440C0E04F55064C1F3074153F82440E9
:1031100001F5406153F8211020440844C2F307210F
:1031200001F5306153F821100844D1B201F5206156
:1031300053F821100844110E01F5106153F82110C5
:10314000C2F3074202F5006253F8222008440299B4
:103150001044C1F3072202F5E06253F82220104424
:10316000CAB202F5C06253F8222010440A0E02F5DA
:10317000A06253F822201044C1F3074202F5806296
:10318000039953F822201044C1F3072202F540723C
:1031900053F822201044CAB202F5007253F82220DC
:1031A00010440A0E02F5807253F822201044C1F335
:1031B000074253F8223018448030001200F30F0009
:1031C00005B0BDE8F08F00BF3C190020648F0008F7
:1031D0002DE9F041054686B0EFF31083059372B6F2
:1031E000394C54F82030002B67D14FF0FF3344F8AE
:1031F0002030059B83F3108804F1080000EBC50024
:1032000001F02FFF44F8250054F82550002D57D029
:103210002B882E48002B0CBF012602263146FFF7D3
:1032200013FB6B889905237607D56A68110C6176C4
:10323000110AA176E27604240CE0DA0509D56A6861
:10324000110E6176110CA176110AE1762277052420
:1032500000E0012403F480681FFA88F8B8F1000F39
:103260000AD01B48FFF7F0FA1A4B00210094019393
:103270000295039130460EE003F400639FB26FB1F4
:103280001548FFF7E1FA154B009401930295CDF82C
:103290000C8030464146124A0B460BE01148FFF7BE
:1032A000D3FA114B0E4A01930094029503973046CE
:1032B00003213B4602F03CFB02E0059B83F31088B0
:1032C00006B0BDE8F08100BF9C19002093030108FF
:1032D000A403010865330008B20301082D33000878
:1032E000B4190020C1030108ED32000870B505884B
:1032F000044685F001000E46FFF76AFF23693BB1E3
:1033000020463146984768B9204601F059FE00E052
:103310006680054B002243F825202846BDE8704012
:10332000FFF756BF70BD00BF9C1900207FB5089DF8
:1033300004460E4671B9C368A2680093084B029018
:1033400001930123039308463346032102F0F0FA68
:1033500004B070BD089504B0BDE87040FFF7C6BF6B
:10336000ED3200082DE9FF4104460D46124817468C
:103370001E46DDF82880FFF767FA95B90F48FFF77A
:1033800063FAE368029400930D4B284601930123EE
:10339000039303212A46A36802F0CAFA04B0BDE8E9
:1033A000F081204629463A463346CDF8288004B0BD
:1033B000BDE8F041FFF79ABFCF030108D70301082A
:1033C000ED32000801282DE9F34105460F46164667
:1033D000984643D8142001F0E9FD044610B3089B39
:1033E0006FEA4741C3606FEA514100234180466064
:1033F0000580C0F8088003611C48214600EBC50029
:1034000001F014FE064630B11948FFF71DFA2846B0
:10341000FFF7DEFE06E01748FFF716FA204601F038
:10342000CFFD34461448FFF70FFABCB101A803F0F2
:10343000F3FF6588ADB22B040AD501A803F0F4FFB1
:10344000B0F57A7FF5D3204601F0BAFD0B4806E0CF
:10345000204601F0B5FD0DB9012003E00848FFF753
:10346000F3F9002002B0BDE8F08100BFA4190020EC
:10347000DB030108FA0301080B0401083404010806
:103480003C0401082DE9D041174685B0002288464A
:103490001E460092062113460446FFF793FF08B923
:1034A000002018E00096204640F6022142463B46A6
:1034B000FFF788FF0028F3D001230093204640F255
:1034C000054100220DF10F03FFF77CFF18B19DF8B5
:1034D0000F30DB07F0D405B0BDE8D081B3F5000FA5
:1034E0002DE9F04180460C4617461E4602D90020C1
:1034F000BDE8F0810B444B4033F0FF050DD041F0A7
:10350000FF056D1A01352B46FFF7BCFF0028EED0F2
:103510002C442F44C4F31604761B3546BA19FF2DEC
:10352000C5EB02020ED9404621464FF48073FFF7E7
:10353000A9FF0028DBD004F58074C4F31604A5F5B8
:103540008075EBE735B1404621462B46BDE8F0419A
:10355000FFF798BF0120BDE8F08100002DE9F74F8B
:10356000DFF86081524F534E404602F053FF524DF8
:10357000384602F04FFF304602F04CFF284602F07A
:1035800049FF4E4BDFF840B11846DFF840A10093E9
:10359000DFF83C9102F03EFF584602F03BFF5046F8
:1035A00002F038FF4846464C02F034FFFF2001216C
:1035B00003F086F940464FF4407102F0D6FF4046D2
:1035C000214602F085FF404604F1080102F080FF29
:1035D00004F1100211464046019202F079FF38468C
:1035E0004FF4884102F0C1FF384604F1180102F09F
:1035F0006FFF384604F1200102F06AFF019A384655
:10360000114602F065FF30464FF4807102F0ADFFC5
:10361000304604F1280102F05BFF304604F130012E
:1036200002F056FF304604F1380102F051FF2846FF
:1036300040F2931102F099FF284604F1400102F094
:1036400047FF284604F1480102F042FF284604F1F2
:10365000500102F03DFF009B0021184602F085FF5B
:10366000009B04F15801184602F032FF5846002131
:1036700002F07BFF584604F1600102F029FF50463A
:10368000002102F072FF504604F1680102F020FFB1
:103690004846002102F069FF484604F1700102F03B
:1036A00017FFE020002103B0BDE8F04F03F008B998
:1036B0000004024000080240000C024000100240DA
:1036C00064EF00080000024000180240001C0240A5
:1036D000001402402DE9F743224EDFF894900125B3
:1036E00002274FF480633046694602AC8DF80470BF
:1036F00044F8083D8DF805508DF8075002F0E8FEBB
:1037000008234846694600934FF0030802F0E0FEA4
:103710008DF80470122300274846694600938DF8FF
:1037200005808DF8077002F0D3FE4FF4C453304685
:10373000694600938DF804808DF805508DF8077068
:1037400002F0C6FE042369460748009302F0C0FE5B
:103750004FF6FF7305486946009302F0B9FE03B0C7
:10376000BDE8F08300000240000402400010024067
:10377000000C024038B5124D01462B6853B11A684F
:1037800012B15868904702E05B6803B1187028686E
:1037900001F016FC0B4C0C48A38823F4E0631B04D7
:1037A0001B0CA38001F05DFC286038B1A3889BB29C
:1037B00043F44073A38040F20113238038BD00BF5F
:1037C000BC19002000540040C01900202DE9F34727
:1037D000074614208846924699460B9E0C9D01F0A0
:1037E000E5FB0446002833D00A9B077280F8098065
:1037F000A0F80AA0C0F80C90036106604560EFF3E2
:103800001083019372B61448036853B9134B0460D4
:103810009A8892B242F440729A8040F201121A8061
:103820000DE00430214601F001FC074638B9019B48
:1038300083F31088204601F0C3FB384608E016B930
:103840000DB180232B70019B83F310880120FFE7CB
:1038500002B0BDE8F08700BFBC1900200054004052
:1038600010B586B0089C0094002401940DF1170453
:103870000294FFF7ABFF20B19DF81730802BFBD0EF
:1038800002E010238DF817309DF8170006B010BD28
:1038900038B50220012103F013F84FF40010012184
:1038A00003F026F84FF40010012103F045F84FF41F
:1038B0000010002103F040F83049314802F008FEC2
:1038C000304C012003F09AFD4FF440732360012037
:1038D00003F094FD09252A4B1B8A9B050FD44FF05A
:1038E00080732360012003F089FD013D4FF4807354
:1038F00023600120ADB203F081FD002DEBD14FF02C
:1039000000732360012003F079FD4FF08073236082
:10391000012003F073FD4FF480732360012003F056
:103920006DFD4FF400732360012003F067FD164B1B
:1039300016491A1D03C982E80300002214481549DC
:103940001A6002F027FE0E480821042202F00FFE42
:1039500004220B48092102F00AFE0F49084802F030
:10396000B7FD0E4801F0BEF90D4801F0BBF9BDE806
:1039700038400748012102F07BBE00BFDCEF0008A1
:103980000004024018040240BC19002094F0000812
:1039900000540040E4EF0008F4EF0008FCEF0008DA
:1039A00000F0000838B54F4B4F4C9B8A13F0010FC5
:1039B0000CD023681A7A5B7A02F00702012A494A7E
:1039C0000CBF43F0010303F0FE031382454B9A8AB8
:1039D00092070ED522681269012A04D91A8892B278
:1039E00042F480621A809A8892B242F480629A808D
:1039F0001B8B22683B4B998A0D0621D5117A48070B
:103A000005D521F0040111725189090A08E001F07D
:103A1000020000F0FF0528B121F002011172917A35
:103A20001982E7E7C90710D59A8822F48062120448
:103A3000120C9A801A8892B242F480721A801D8207
:103A400028498B8A5B0623D438BD106990B10138B0
:103A5000106128B9998821F480610904090C9980C2
:103A6000D3681BB1591CD1601B7800E0FF231D4AAD
:103A70001382E5E7998821F4E0610904090C998033
:103A8000198889B241F400711980D060107225E064
:103A900023681A69022A05D10A8822F48062120476
:103AA000120C0A80098ADA68C9B212B1501CD860B7
:103AB00011701A691AB1013A1A61002AC0D1094974
:103AC00000208A8822F4E0621204120C8A800A889C
:103AD00092B242F400720A80D8601872FFF74AFE70
:103AE000AEE700BF00540040BC1900200E4B0F4A47
:103AF000998A01F4407131B14FF400711980136853
:103B000083B120200BE0998A490506D54FF4007156
:103B10001980136833B1402001E013681020187237
:103B2000FFF728BE704700BF00540040BC190020BA
:103B30000148FFF718B900BF00180808024B0348F6
:103B40001968FFF716B900BFC81900200018080847
:103B500001480021FFF70DB9001808080021FFF700
:103B600024B9000008B50A4B586803F06BFC42F218
:103B70001073B0FBF3F202FB130030B101F000F957
:103B8000022814BFFF20022000E0012040B208BD3F
:103B9000C8190020014B1868704700BFC8190020E1
:103BA000014B1874704700BFC8190020024B1A68F7
:103BB00010441860704700BFC8190020024BDA6833
:103BC0001032DA60704700BFC8190020014B002294
:103BD000DA607047C819002008B5FFF7B9FF024B3B
:103BE00000221A60DA6008BDC819002008B5FFF786
:103BF0009FFF014B186008BDC819002008B50A4B8B
:103C000000220A485A829A82DA821A83FFF7A6FFB4
:103C10000748FFF7A3FF0748FFF7A0FFBDE80840EC
:103C20000548FFF79BBF00BFC8190020041808080B
:103C300006180808081808080A18080810B50B48DC
:103C4000FFF7ABF80A4C60820A48FFF7A6F8A0829B
:103C50000948FFF7A2F8E0820848FFF79EF82083A2
:103C60000748FFF79AF8608310BD00BF08180808DE
:103C7000C81900200A1808080618080804180808B7
:103C80000C18080808B5054B01461022D86802F048
:103C900048F8BDE80840FFF791BF00BFC8190020F1
:103CA000014B187C704700BFC8190020002002F0AB
:103CB0009DB800001FB50C4B6946186810221038DB
:103CC00002F02FF80948FEF7BFFD00241DF804108C
:103CD00007480134FEF7B8FD102CF7D10548FEF770
:103CE000B3FD04B010BD00BFC81900204404010892
:103CF0005104010809040108042813D8DFE800F082
:103D00000C0903060F00084B588A7047064B988A27
:103D10007047054BD88A7047034B188B7047024B8E
:103D2000588B704700207047C8190020F0B589B043
:103D30000C46064601F078F869460546002002F078
:103D400067FF01A9002002F0F9FE9DF80230284625
:103D50008DF811309DF801308DF810608DF812301B
:103D60009DF803308DF813309DF806308DF814302F
:103D70009DF805308DF815309DF804308DF816301B
:103D800004F0C2F88DF81700284604F0A5F8230ABD
:103D90008DF81930FF238DF81B308DF81C308DF80D
:103DA0001D308DF81E30AE238DF81F30194B8DF865
:103DB00018001D688DF81A4015F00F0F1F4603D02C
:103DC00008200835FFF7F2FE04A91022284601F06A
:103DD00063FF1020FFF7EAFE3B68294610220E48D9
:103DE000FEF732FDFFF7AAFE042E10D8DFE806F03A
:103DF000030507090B00094806E0094804E00948E3
:103E000002E0094800E009482146FEF7CEFF09B06C
:103E1000F0BD00BFC81900205704010804180808A5
:103E200006180808081808080A1808080C180808CE
:103E30002DE9F341074614461D460E4649B3FDF7EA
:103E400057FC80463846FFF757FF230A020A8DF8D1
:103E500001008DF8033040462B0A8DF805308DF8AF
:103E600000208DF804408DF802608DF8065004F0B3
:103E70004BF8094C694608228DF80700206801F0CC
:103E80000BFF0820FFF792FE044821680822FEF786
:103E9000DBFC02B0BDE8F081C81900209B040108DA
:103EA000024B012283F82020704700BFC819002070
:103EB000FFF7C4BEFFF79ABE014B93F8200070478E
:103EC000C8190020024B002283F82020704700BF51
:103ED000C819002038B50F4C94F821303BB90123A4
:103EE0000D4884F82130FEF7AFFC01F0C9FBFFF765
:103EF000DDFE054658B1FFF76FFEFFF77FFE01F0CC
:103F0000EFFB002384F82130237484F82030284606
:103F100038BD00BFC8190020D104010870B506469D
:103F200004282BD8DFE800F01E18030D2400184DDC
:103F30006C8A0134A4B26C8203F07EFA02236860BA
:103F400008E0134DAC8A0134A4B2AC8203F074FAD9
:103F5000032368602B7212E00D4BDC8A0134A4B29B
:103F6000DC820CE00A4B1C8B0134A4B21C8306E0FB
:103F7000074B5C8B0134A4B25C8300E00024304624
:103F80002146FFF7D3FEBDE87040FFF793BE00BFA8
:103F9000C81900202DE9F843184C04F1240000F062
:103FA00075FD04F1280000F081FDFFF7DBFD061E22
:103FB00021DD94F82050F5B9FDF794FB8046606A46
:103FC00094F8089003F0A0FF0746A06A03F09CFF56
:103FD000414683B2BAB24846FFF72AFF00F082FD9D
:103FE00000F07AFD022E04D1012384F82030BDE8D0
:103FF000F88384F82050BDE8F88300BFC81900207A
:1040000013B5FEF7C5FB4FF480710022684802F03B
:10401000A7FA00F041FF00F0A5FF6648FEF714FC88
:10402000654B66490093664B66480193664B1A6878
:10403000664B1B68FEF708FC654B66481968FEF77F
:1040400003FC654B65481968FEF7FEFBFEF708FEAA
:10405000FDF784FB20200A2100F076FBFFF72AFF02
:10406000FFF726FF0220FFF759FF00F08FFE01380F
:104070000328FAD8DFE800F053390282FEF76EF821
:10408000FEF7B8F8FEF702F9FEF74CF900F018FF5A
:10409000A8B100F025FF30B100F022FF60B101208F
:1040A000FFF73CFF08E0FDF71DFF062807D0FDF7EE
:1040B0003FFB0028F0D102E0022000F05BFE00F0A0
:1040C00007FF58B1FFF7ECFD40B1FFF703FF28B140
:1040D0000420FFF723FF0220FFF720FFFFF75AFF1E
:1040E000FDF7B0FFFDF776FBBFE7FDF7FBFE092804
:1040F00010D100F051FE68B9FFF7DEFE50B110207C
:10410000012100F021FB01F031FBFDF745FB00F040
:10411000CDFB49E0FFF73EFFFDF794FFA5E700F078
:10412000DFFE40B1FEF7BEFD0120FFF7F7FE00F015
:10413000EDFB042039E02A4C237833B123784BB1CE
:10414000274B00221A70032005E000F0C1FE002872
:10415000F4D110E00220FFF7E1FEFEF737FBFDF798
:10416000FDFAFFF7AFFE20200A2100F0EDFA01F082
:10417000E7FA032019E000F0C7FE76E700F0BAFE88
:1041800020B10020FFF7CAFE00F0FAFE00F0A0FE0A
:104190000028F0D0FEF71AFB00F0E6FB102001210A
:1041A00000F0D2FAFEF75CFD012000F0E3FD5CE7D1
:1041B000000802402E0501081CF0000808F0000865
:1041C00013F00008390501082CF0000828F0000859
:1041D00004F0000857050108980E01087005010851
:1041E0001C1A0020F7B51546002204460F4601921E
:1041F0001E46002B00F00C814FF6FF730193204602
:104200004FF4003102F08BFA30B1019B5A1E01923B
:10421000002BF4D10120FCE02046012102F04CFAF1
:1042200020464FF2FF7102F060FA2046012102F0B1
:104230002BFA4FF6FF7301932046774902F063FA99
:1042400028B9019B5A1E0192002BF5D1E2E72046C6
:104250003946002202F03CFA4FF6FF7301932046E4
:104260006E4902F050FA28B9019B5A1E0192002BA8
:10427000F5D1CFE720469DF8201002F031FA4FF635
:10428000FF7301932046664902F03DFA28B9019B6D
:104290005A1E0192002BF5D1BCE72046012102F005
:1042A000F3F94FF6FF73019320465B4902F02BFAB6
:1042B00028B9019B5A1E0192002BF5D1AAE720468E
:1042C0003946012202F004FA4FF6FF7301932046AB
:1042D000544902F024FA28B9019B5A1E0192002B7E
:1042E000F5D197E7012E1BD12046002102F0E4F919
:1042F00020463146238B02F0D3F94FF6FF7301932A
:104300002046494902F00BFA28B9019B5A1E019236
:10431000002BF5D17EE7204602F0E4F9287069E031
:10432000022E20D12046002102F0C6F920464FF48B
:10433000006102F0DAF9238B4FF6FF7301932046F8
:104340003A4902F0ECF928B9019B5A1E0192002B60
:10435000F5D15FE72046012102F0A2F9238A2B70F4
:10436000238A6B7046E0033E238B2E444FF6FF7387
:10437000B542019316D020462C4902F0D0F928B955
:10438000019B5A1E0192002BF5D143E7204602F013
:10439000A9F905F8010BE9E7019B5A1E0192002BD0
:1043A0003FF438AF2046214902F0B9F90028F3D094
:1043B0002046002102F080F9204602F093F94FF6E2
:1043C000FF73287001932046184902F0A8F928B914
:1043D000019B5A1E0192002BF5D11BE701212046BB
:1043E00002F05EF9204602F07DF96870204602F086
:1043F00079F9A8704FF6FF73019320460C4902F03B
:104400008EF930B1019B5A1E0192002BF5D101E7C4
:10441000184603B0F0BD00BF010003008200070092
:10442000840007000200001040000010040000108B
:1044300010000010F7B51546002204460F46019201
:104440001E460BB900206EE04FF6FF730193204625
:104450004FF4003102F063F930B1019B5A1E019212
:10446000002BF4D101205EE02046012102F00CF97E
:104470004FF6FF73019320462C4902F044F928B906
:10448000019B5A1E0192002BF5D1EBE720463946DD
:10449000002202F01DF94FF6FF73019320462449D4
:1044A00002F031F928B9019B5A1E0192002BF5D177
:1044B000D8E720469DF8201002F012F92E444FF65E
:1044C000FF73B542019315D020461A4902F027F92F
:1044D00028B9019B5A1E0192002BF5D1C2E7204654
:1044E00015F8011B02F0FCF8E9E7019B5A1E019246
:1044F000002BB7D020460F4902F011F90028F4D064
:104500002046012102F0CCF84FF6FF7301930A48D0
:104510000A4902F004F9002894D0019B5A1E019226
:10452000002BF4D19EE703B0F0BD00BF01000300F3
:10453000820007000400001000540040100000102A
:1045400037B505200121414C02F0BAF9012001469E
:1045500002F0C2F921463E4801F0BAFF04F1080119
:104560003C4801F0B5FF04F1100000F0BBFB002057
:10457000014602F066FC04210220012502F061FCE4
:1045800004F1140001F084FE04F11C0300953C21A9
:1045900092220220FFF764F904F11D0300953C21EB
:1045A000B0220220FFF75CF904F11E0300953C21C4
:1045B000B4220220FFF754F9052300933C2104F1B3
:1045C0001F039F220220FFF74BF904F124030095FB
:1045D0003C21AE220220FFF743F900953C219322B3
:1045E00000230320FFF73CF900953C21B122002372
:1045F0000320FFF735F900953C21B5220023032065
:10460000FFF72EF904F1250300953C21AE2202208C
:10461000FFF726F90C2300933C2104F12603942292
:104620000220FFF71DF9062300933C2104F1320319
:10463000A1220220FFF714F900953C21A02204F1E9
:1046400038030220FFF70CF903B030BD30F000084A
:10465000000002400008024037B504200121374C19
:1046600002F02EF90120014602F036F904F13C0176
:10467000334801F02DFF0220052102F0E2FB022069
:10468000062102F0DEFB062301250093D02104F170
:104690004403A0220220FFF7E3F804F14A03009547
:1046A000D021AE220220FFF7DBF804F14B03009586
:1046B000D021B0220220FFF7D3F807230093D021A6
:1046C00004F14C03B2220220FFF7CAF8042300933E
:1046D000D02104F15303A0220220FFF7C1F8D0211A
:1046E0000095B02200230320FFF7BAF8154B0022F3
:1046F00004F158001A7001F0CBFD602001F002FEB9
:1047000004F160030095D021AE220220FFF7A8F843
:1047100004F16103D021A02200950220FFF7A0F848
:10472000052002F06BFE0095D021A42204F1620363
:104730000220FFF795F803B030BD00BF30F000084D
:1047400000080240F819002030B587B08DF80F003E
:104750008DF80E10EFF31083059372B6002306ACAC
:1047600004F8053D30250123009515483C212246DB
:10477000FFF760FE9DF90F30002B1BDD3223009305
:104780003C210DF10F0201230D48FFF753FE3323A7
:1047900000933C210DF10E0201230948FFF74AFE68
:1047A0002A238DF81330009505483C212246012329
:1047B000FFF740FE059B83F3108807B030BD00BFB4
:1047C0000054004082B068B1EFF31083019372B6D9
:1047D000054B5A8802809A88DB8842808380019B3F
:1047E00083F3108802B07047F819002082B050B1EE
:1047F000EFF31083019372B600230380438083801C
:10480000019B83F3108802B07047000082B068B14A
:10481000EFF31083019372B6054B5A8902809A898F
:10482000DB8942808380019B83F3108802B070474C
:10483000F81900201FB5EFF31083039372B600231D
:1048400004AA02F8053D20230093D0210123044847
:10485000FFF7F0FD039B83F3108805B05DF804FBC0
:10486000005400401FB5EFF31083039372B60E4C53
:1048700004AA472302F8063D2E2300932046D021A8
:104880000123FFF7D7FD04AA0F2302F8053D2023DB
:1048900000932046D0210123FFF7CCFD039B83F337
:1048A000108804B010BD00BF0054004030B585B082
:1048B000EFF31083039372B6134D04AC002304F896
:1048C000053D23230093224628463C210123FFF780
:1048D000B1FD07238DF80B3026230093224628468E
:1048E0003C210123FFF7A6FD37238DF80B30202351
:1048F000009328463C2122460123FFF79BFD039BA2
:1049000083F3108805B030BD005400407FB5EFF34D
:104910001083039372B6134D04AC002604F8056DA2
:1049200022230093224628463C210123FFF782FDE3
:1049300003238DF80B3026230093224628463C2182
:104940000123FFF777FD2023009328463C212246D0
:1049500001238DF80B60FFF76DFD039B83F3108837
:1049600004B070BD00540040F0B585B0EFF3108383
:10497000039372B6012504AC124E04F8055D23239F
:10498000009322462B4630463C21FFF753FD22235D
:104990002027009322462B4630463C218DF80B7091
:1049A000FFF748FD57238DF80B3000972B46304614
:1049B0003C212246FFF73EFD039B83F3108805B0A0
:1049C000F0BD00BF00540040F8B5154C04F11000D4
:1049D000FFF71CFFB4F91000FCF7C2FA0746B4F960
:1049E0001200FCF7BDFA0646B4F91400FCF7B8FA59
:1049F000394605463846FCF707FB31460446304643
:104A0000FCF702FB01462046FCF7F6F9294604466E
:104A10002846FCF7F9FA01462046FCF7EDF9F8BD07
:104A2000F8190020F8B5184C04F11600FFF7CAFE7B
:104A3000B4F91600FCF794FA0746B4F91800FCF72D
:104A40008FFA0646B4F91A00FCF78AFA3946054689
:104A50003846FCF7D9FA314604463046FCF7D4FA1A
:104A600001462046FCF7C8F9294604462846FCF7CB
:104A7000CBFA01462046FCF7BFF9FBF759FE03F0DD
:104A8000C5FAFCF763F9F8BDF819002070B50646C1
:104A9000FFF7C8FF044D0446E969FCF771FC08B153
:104AA000EC61346070BD00BFF819002070B5064697
:104AB000FFF78AFFFBF73CFE03F0A8FAFCF746F984
:104AC000044D0446296AFCF75BFC08B12C62346093
:104AD00070BD00BFF8190020014B00221A62704718
:104AE000F8190020014B0022DA617047F819002004
:104AF00013B5084C3123009304F108023C21012333
:104B00000548FFF76FFB054A012384F82430536101
:104B100002B010BDF819002000540040000401400C
:104B2000F0B5002485B0082725462646A823009323
:104B3000104806233C2102AAFFF754FBBDF90830B8
:104B4000013F1E44BDF90A301D44BDF90C301C4420
:104B5000ECD1094B082296FBF2F695FBF2F594FB9B
:104B6000F2F45E809D80DC80044B10225A6105B017
:104B7000F0BD00BF00540040F819002000040140BF
:104B8000014B20225A61704700040140F0B52F23E9
:104B900087B000931F48D0210DF10F020123FFF7CA
:104BA00021FB9DF80F70002407F01F078DF80F7090
:104BB0002546264628230093D0210DF10E0201231D
:104BC0001448FFF70FFBAA23009312480623D021B5
:104BD00004AAFFF707FBBDF91430013F1E44BDF9DD
:104BE000103017F0FF071D44BDF912301C44E1D10D
:104BF0009DF80F20084B013296FBF2F695FBF2F57B
:104C000094FBF2F45E819D81DC81044B40225A6169
:104C100007B0F0BD00540040F81900200004014026
:104C2000F8B507460D46002405EB8400FEF758F959
:104C300038530234B4F5807FF6D10C4C002025683F
:104C40006168802D28BF80256E003A463346FEF706
:104C500045FC40B163681E44236866605D1B2560A7
:104C60001DB92572F8BD02232372F8BD201A002059
:104C700008B5144801F0F4FA68B1124801F0FEFAE0
:104C800011490B7A012B06D10B6823B101F60C00F8
:104C90000C31FFF7C5FF0D4801F0E2FA80B10B4877
:104CA00001F0ECFA08490B7A012B09D10B683BB1F2
:104CB00001F60C10BDE8084001F20C41FFF7B0BF4F
:104CC00008BD00BF04000010201A002002000010E0
:104CD00040F0BF60024B40F40030D860704700BF26
:104CE00000ED00E0C27810B503780AB3164A4478A4
:104CF000D26803F16043D243C2F30222C2F104013D
:104D0000C9B204FA01F10F2444FA02F28478C9B25C
:104D100022400A431201D2B203F5614383F8002313
:104D200003780122590903F01F0302FA03F306E096
:104D30005909012203F01F0302FA03F32031034A49
:104D400042F8213010BD00BF00ED00E000E100E0BE
:104D5000044B04281A680CBF42F0040222F004023B
:104D60001A60704710E000E0014B1878704700BFF0
:104D700008030020014B1870704700BF2C2400204E
:104D8000014B1878704700BF2C240020014B187885
:104D9000704700BF2C24002008B54FF48061044800
:104DA00001F0CEFBD0F1010038BF002008BD00BFEC
:104DB000000C024070B54FF480710646002218487E
:104DC00001F0CEFB012001F0FBFC212001F0C0FD31
:104DD0000028FAD0012001F001FD1248012101F064
:104DE0008DF81048402101F030F90028F9D008254D
:104DF00000243046FCF752FB013D204415F0FF052E
:104E000084B2F6D12946074801F078F804484FF4F7
:104E10008071012201F0A4FB44F38D0070BD00BF3E
:104E20000008024000240140F8B50A20FFF7C2FF45
:104E300007461120FFF7BEFF154B0646B3F90000E9
:104E4000FBF764FC0022134BFBF7C6FC0446B8B228
:104E50000D46FBF75BFC02460B4620462946FBF756
:104E6000BBFC0446B0B20D46FBF750FC06A3D3E9E9
:104E70000023FBF7B1FC02460B4620462946FBF710
:104E8000D5FDFBF763FFF8BD0000000000FEAF405A
:104E9000F800F81F0000184008B5FFF7C5FFFBF742
:104EA00047FC05A3D3E90023FBF708FF0028F4D152
:104EB00008BD00BFAFF300806666666666660E409A
:104EC000024B1878053818BF0120704708030020EE
:104ED000024B1878431F584258417047080300207E
:104EE000034B187801288CBF00200120704700BFB9
:104EF00008030020034B1878D0F1010038BF0020D0
:104F0000704700BF0803002008B5202001F000FA18
:104F1000402001F0FDF9012001F0FAF9102001F024
:104F2000F7F90D4840F22551002202F000F940F255
:104F300025510A48002202F0FAF8094B01201A68AC
:104F400022F002021A6001F013FCBDE808400120C3
:104F5000014601F013BC00BF00480040003801408A
:104F600010E000E008B501220348802101F0F8FAC2
:104F7000024B03221A7008BD000802402C240020B6
:104F800008B50848802101F0E1FA28B105488021E0
:104F9000002201F0E5FAF4E70348BDE80840FDF718
:104FA00053BC00BF00080240AB05010808B508303B
:104FB000FCF7A6FA002310B103604360083008BD77
:104FC00007B5A0B1EFF31083019372B650F8083C17
:104FD00013B950F8043C23B1019B83F310880020DF
:104FE00006E0019B83F310880838FCF7D1FA012012
:104FF00003B05DF804FB13B5B0B1A1B1A1F1080392
:10500000EFF31082019272B60268002441F8082C76
:1050100041F8044C02B153604268036002B9436036
:10502000019B83F31088084602B010BD82B0B0B176
:10503000A1B1A1F10803EFF31082019272B6002230
:1050400041F8082C426841F8042C02B11360026850
:10505000436002B90360019B83F31088084602B0E5
:10506000704782B0C0B1EFF31083019372B603684A
:1050700073B119680022016009B14A6000E0426022
:105080001A605A60019A82F3108803F1080003E065
:10509000019A82F31088184602B0704703682BB15A
:1050A0004068D0F1010038BF0020704701207047F0
:1050B00030B54FF0805089B0012101F019FC01207A
:1050C00001F050FB012001F081FB492001F040FC80
:1050D0000028FAD04FF4803001F0D4FB012001F019
:1050E000E9FB00247F2308A8069340F80C4DFF231A
:1050F000079301F093FC002851D0694620468DF8B3
:1051000003408DF800408DF801408DF8024001F019
:10511000C9FC04238DF80430152301A908258DF856
:10512000063020460E238DF807308DF8055001F02B
:1051300027FD204601F0AAFD204601F089FD42F23C
:105140009C7001F097FD012001F0A0FD4FF480104C
:1051500001F0DEF84FF480138DF8115003A80125FB
:1051600003938DF810408DF8125001F091F803234D
:105170008DF808308DF8093002A802238DF80A3026
:105180008DF80B50FFF7AEFD4FF48040294601F03B
:10519000A7FD4FF4804001F0DDFD204600E0012036
:1051A00009B030BD0000000030B54FF4804085B03C
:1051B00001F0B4FD002861D0FFF7EEFD384C08B1D6
:1051C000052300E006232370FFF7CEFD062841D11A
:1051D000FFF72AFE03900398FBF7AAFA28A3D3E966
:1051E0000023FBF789FD2F4D18B1042323705A23A8
:1051F0002FE00398FBF79CFA23A3D3E90023FBF7E6
:105200007BFD18B1032323703C2322E00398FBF7B6
:105210008FFA1FA3D3E90023FBF76EFD08B1282303
:1052200017E003982049FCF7ABF818B1022323706C
:1052300014230EE00398FBF77BFA17A3D3E90023AE
:10524000FBF75AFD18B1012323700F2301E02070F2
:105250000A232B700820FCF7CBFE38B1114B1B2022
:105260000093082100220123FDF746F94FF4804006
:1052700001F070FD4FF4801001F04AF805B030BD28
:10528000285C8FC2F5280F406666666666660E402B
:10529000CDCCCCCCCCCC0C40333333333333074080
:1052A000080300200903002000006040AFF30080E5
:1052B00008B54FF4805001F031FD48B14FF48050F3
:1052C00001F048FDBDE808404FF4003001F020B87F
:1052D00008BD2DE9F84346680446B24238BF164679
:1052E000884636B30120216804F10802334600F0F5
:1052F00048FD00256F00E319B3F8089001F0A2FF04
:1053000001460FFA89F0FDF7F5FB0135014608EB80
:105310000700FDF7E9FBB542ECD16068236803EBB9
:105320004503451B281C2360656018BF0120BDE8AC
:10533000F8833046BDE8F88313B5074C4FF47A7113
:10534000B4F85030206C00934FF0FF320B4601F060
:1053500087FF606502B010BD30240020014B586DFE
:1053600001F0E2BF30240020054B0649DA8891FBAA
:10537000F2F29A605208DA60002283F858207047EF
:1053800030240020C0D4010013B5214C94F85830CB
:10539000032B3AD8DFE803F002131C2B01232375FB
:1053A0001C4B04F118001B682361238D00930FC868
:1053B00001F056FFE0650028F2D0012213E0154B02
:1053C0001A682369D31AE26893421ED302220AE0C4
:1053D000A38F04F12C0000930FC801F041FF206659
:1053E0000028F5D003220A4B83F858200DE0094B22
:1053F0001A682369D21AA3689A4228BF044A4FF058
:10540000000328BF82F85830237502B010BD00BFDA
:1054100030240020C024002010B5534C2379172BD2
:1054200000F29080DFE803F00C11171D23292F35BF
:105430003B41474D52575C61666B70757A7F84893A
:105440000023636647F637637BE04FF4803363667F
:1054500047F6296375E04FF40033636647F6DE33A1
:105460006FE04FF44033636647F24C1369E04FF44A
:105470008023636646F61E4363E04FF4A023636611
:1054800042F641535DE04FF4C023636648F6A7330C
:1054900057E04FF40023636649F6357351E04FF44B
:1054A000202363664BF21E434BE04FF440236366B8
:1054B0004BF2835345E04FF4602363664EF2E97389
:1054C0003FE04FF480136366284B3AE04FF49813A3
:1054D0006366274B35E04FF4B0136366254B30E02D
:1054E0004FF4C8136366244B2BE04FF4E813636654
:1054F000224B26E04FF408136366214B21E04FF462
:105500001C1363661F4B1CE04FF4301363661E4B85
:1055100017E04FF4441363661C4B12E04FF458132A
:1055200063661B4B0DE04FF470136366194B08E084
:105530004FF484036366184B03E04FF490036366F3
:10554000164BA36640F60800FBF7DAFF064BE06651
:1055500040B193F87020013283F870205A6E9B6E30
:105560000260436010BD00BF3024002092020100A1
:105570000E3501009E6C0100DE8001003E09020034
:10558000A8330200763402007D5102008C6F0200C5
:10559000A0B402009EB902005ED202009D940600F3
:1055A00070B50A4C0A4DE16E2B784E682BB1094854
:1055B000FDF750FA08B100232B7036B9E36E626E26
:1055C0001A60A26E5A6001232B7070BD3024002037
:1055D0000A030020D352000838B5084C0023E06EBF
:1055E00094F8705003604360054B01221A7025B196
:1055F000013DFBF7CDFF84F8705038BD302400200A
:105600000A030020014B187D704700BF30240020A2
:10561000064B1B78012B05D002D3022B04D0704718
:10562000FFF78ABEFFF7A0BEFFF7F6BE30240020CA
:1056300008B5094B1B78012B02D0022B06D008BD00
:10564000FFF78CFEBDE80840FFF79EBEFFF786FE21
:10565000BDE80840FFF7A4BF3024002038B5074D4F
:105660002C7814B1022C04D038BDFFF777FE6C659E
:1056700038BDBDE83840FFF7AFBF00BF3024002081
:1056800037B5134C47F6FF7500210A4623460095AF
:10569000104801F0E5FD4FF4FA7001F0AFFE002173
:1056A0000A46234600950C4801F0DAFD4FF4FA70E3
:1056B00001F0A4FE002100950A462346074801F0A8
:1056C000CFFD4FF4FA7003B0BDE8304001F096BE54
:1056D000801A0600C35D260C2389461BD7D04E0FC7
:1056E00037B5134C47F6FF7500210A46234600954F
:1056F000104801F0B5FD4FF4FA7001F07FFE002173
:105700000A46234600950C4801F0AAFD4FF4FA70B2
:1057100001F074FE002100950A462346074801F077
:105720009FFD4FF4FA7003B0BDE8304001F066BE53
:10573000801A0600D7D04E0F2389461BC35D260C66
:1057400007B547F6FF73002100930A46054B06484C
:1057500001F086FD4FF4FA7003B05DF804EB01F040
:105760004DBE00BF801A060045241A0907B547F64A
:10577000FF73002100930A46054B064801F070FDB7
:105780004FF4FA7003B05DF804EB01F037BE00BFD0
:10579000801A06006C68A70707B547F6FF7300215B
:1057A00000930A46054B064801F05AFD4FF4FA7083
:1057B00003B05DF804EB01F021BE00BF801A0600C3
:1057C00086BB4C18304930B50B88304A23F48863C7
:1057D0001B041B0C0B808B884FF4883523F0E303EC
:1057E0001B041B0C8B80136823F00F031360284BE2
:1057F0001C6824F00F041C60264C65600C898C89A1
:10580000098900283ED0C4684FF6FE71651E8D429E
:1058100038D8816821B1D160116841F0800104E07D
:105820001D49D160116821F080011160416821B1EA
:10583000D960196841F0800107E01749FF2501F898
:10584000015FD960196821F080011960007813495F
:1058500031F810001249000408600B49888880B2B2
:1058600040F023008880088880B240F04000088023
:1058700054605C60116841F00B0111601A6842F0DD
:1058800009021A6030BD00BF003800404460024089
:105890005860024000600240A42400209CF00008F0
:1058A000180C02401D4A30B513881D4C23F04003EC
:1058B0001B041B0C1380938885B023F0E0031B04AA
:1058C0001B0C938063680146A3B15878154A1D6983
:1058D00032F81000144A106035B1DA680092586945
:1058E0005A689B68A84702E05B6903B11970606859
:1058F000FFF766FBEFF31083039372B64FF0FF33AD
:105900006360039B83F310880848FFF7AAFB60607D
:10591000606808B1FFF756FF05B030BD00380040A1
:10592000A42400209CF00008180C0240AC240020A5
:105930002DE9F7430A9D8146884617461E460DB954
:10594000002051E00AB9002BFAD02948FCF77CFF6F
:105950001820FFF72BFB04460028F1D02548FCF760
:1059600073FF0B9B84F8009023610C9B84F80180EB
:1059700063619DF834306760A660E5601E4821468B
:1059800013B1FFF738FB01E0FFF750FB051C18BF10
:10599000012525B31948FCF757FFEFF31083019356
:1059A00072B6174C6368B3B91648FCF74DFF4FF059
:1059B000FF336360019B83F3108804F10800FFF755
:1059C00050FB6060636873B10F48FCF73DFF60688F
:1059D000FFF7F8FE07E0019B83F3108803E0204601
:1059E000FFF7EEFAACE7012003B0BDE8F08300BF9B
:1059F000CE050108EA050108AC240020EF050108E6
:105A0000A4240020F4050108F805010810B5194C7C
:105A10001948FCF719FFA3889A0607D523895B0666
:105A200004D50120A3892389FFF73CFFA388114AED
:105A30005C060CD51389D80709D593899388032070
:105A400023F0C0031B041B0C9380FFF72BFF094AB4
:105A5000938819060DD513899B070AD5BDE8104018
:105A60009388032023F0C0031B041B0C9380FFF7D3
:105A700019BF10BD00380040FC05010808B54FF4FF
:105A8000005000F0EDFB30B14FF4005000F0F6FB99
:105A90000020FFF707FF4FF4004000F0E1FB30B1BA
:105AA0004FF4004000F0EAFB0220FFF7FBFE4FF44A
:105AB000804000F0D5FB40B14FF4804000F0DEFBA9
:105AC000BDE808400320FFF7EDBE08BD08B54FF460
:105AD000002000F0C5FB30B14FF4002000F0CEFBF9
